{
	"Verifiable On-Chain Provenance Tracker/Smart Contract/Tracker.sol": {
		"tracker": {
			"abi": [
				{
					"anonymous": false,
					"inputs": [
						{
							"indexed": true,
							"internalType": "uint256",
							"name": "id",
							"type": "uint256"
						},
						{
							"indexed": true,
							"internalType": "address",
							"name": "owner",
							"type": "address"
						},
						{
							"indexed": false,
							"internalType": "string",
							"name": "name",
							"type": "string"
						}
					],
					"name": "ItemRegistered",
					"type": "event"
				},
				{
					"anonymous": false,
					"inputs": [
						{
							"indexed": true,
							"internalType": "uint256",
							"name": "id",
							"type": "uint256"
						},
						{
							"indexed": true,
							"internalType": "address",
							"name": "from",
							"type": "address"
						},
						{
							"indexed": true,
							"internalType": "address",
							"name": "to",
							"type": "address"
						}
					],
					"name": "OwnershipTransferred",
					"type": "event"
				},
				{
					"inputs": [],
					"name": "currid",
					"outputs": [
						{
							"internalType": "uint256",
							"name": "",
							"type": "uint256"
						}
					],
					"stateMutability": "view",
					"type": "function"
				},
				{
					"inputs": [
						{
							"internalType": "string",
							"name": "_name",
							"type": "string"
						}
					],
					"name": "registerItem",
					"outputs": [],
					"stateMutability": "nonpayable",
					"type": "function"
				},
				{
					"inputs": [
						{
							"internalType": "uint256",
							"name": "id",
							"type": "uint256"
						},
						{
							"internalType": "address",
							"name": "newOwner",
							"type": "address"
						}
					],
					"name": "transferOwnership",
					"outputs": [],
					"stateMutability": "nonpayable",
					"type": "function"
				}
			],
			"devdoc": {
				"kind": "dev",
				"methods": {},
				"version": 1
			},
			"evm": {
				"assembly": "    /* \"Verifiable On-Chain Provenance Tracker/Smart Contract/Tracker.sol\":60:1129  contract tracker {... */\n  mstore(0x40, 0x80)\n    /* \"Verifiable On-Chain Provenance Tracker/Smart Contract/Tracker.sol\":201:202  1 */\n  0x01\n    /* \"Verifiable On-Chain Provenance Tracker/Smart Contract/Tracker.sol\":177:202  uint256 public currid = 1 */\n  0x00\n  sstore\n    /* \"Verifiable On-Chain Provenance Tracker/Smart Contract/Tracker.sol\":60:1129  contract tracker {... */\n  callvalue\n  dup1\n  iszero\n  tag_1\n  jumpi\n  revert(0x00, 0x00)\ntag_1:\n  pop\n  dataSize(sub_0)\n  dup1\n  dataOffset(sub_0)\n  0x00\n  codecopy\n  0x00\n  return\nstop\n\nsub_0: assembly {\n        /* \"Verifiable On-Chain Provenance Tracker/Smart Contract/Tracker.sol\":60:1129  contract tracker {... */\n      mstore(0x40, 0x80)\n      callvalue\n      dup1\n      iszero\n      tag_1\n      jumpi\n      revert(0x00, 0x00)\n    tag_1:\n      pop\n      jumpi(tag_2, lt(calldatasize, 0x04))\n      shr(0xe0, calldataload(0x00))\n      dup1\n      0x29507f73\n      eq\n      tag_3\n      jumpi\n      dup1\n      0x2cbbf664\n      eq\n      tag_4\n      jumpi\n      dup1\n      0xadce7b88\n      eq\n      tag_5\n      jumpi\n    tag_2:\n      revert(0x00, 0x00)\n        /* \"Verifiable On-Chain Provenance Tracker/Smart Contract/Tracker.sol\":754:1126  function transferOwnership(uint256 id, address newOwner) public {... */\n    tag_3:\n      tag_6\n      0x04\n      dup1\n      calldatasize\n      sub\n      dup2\n      add\n      swap1\n      tag_7\n      swap2\n      swap1\n      tag_8\n      jump\t// in\n    tag_7:\n      tag_9\n      jump\t// in\n    tag_6:\n      stop\n        /* \"Verifiable On-Chain Provenance Tracker/Smart Contract/Tracker.sol\":177:202  uint256 public currid = 1 */\n    tag_4:\n      tag_10\n      tag_11\n      jump\t// in\n    tag_10:\n      mload(0x40)\n      tag_12\n      swap2\n      swap1\n      tag_13\n      jump\t// in\n    tag_12:\n      mload(0x40)\n      dup1\n      swap2\n      sub\n      swap1\n      return\n        /* \"Verifiable On-Chain Provenance Tracker/Smart Contract/Tracker.sol\":433:746  function registerItem(string memory _name) public {... */\n    tag_5:\n      tag_14\n      0x04\n      dup1\n      calldatasize\n      sub\n      dup2\n      add\n      swap1\n      tag_15\n      swap2\n      swap1\n      tag_16\n      jump\t// in\n    tag_15:\n      tag_17\n      jump\t// in\n    tag_14:\n      stop\n        /* \"Verifiable On-Chain Provenance Tracker/Smart Contract/Tracker.sol\":754:1126  function transferOwnership(uint256 id, address newOwner) public {... */\n    tag_9:\n        /* \"Verifiable On-Chain Provenance Tracker/Smart Contract/Tracker.sol\":840:841  0 */\n      0x00\n        /* \"Verifiable On-Chain Provenance Tracker/Smart Contract/Tracker.sol\":837:839  id */\n      dup3\n        /* \"Verifiable On-Chain Provenance Tracker/Smart Contract/Tracker.sol\":837:841  id>0 */\n      gt\n        /* \"Verifiable On-Chain Provenance Tracker/Smart Contract/Tracker.sol\":837:857  id>0 && id <= currid */\n      dup1\n      iszero\n      tag_19\n      jumpi\n      pop\n        /* \"Verifiable On-Chain Provenance Tracker/Smart Contract/Tracker.sol\":851:857  currid */\n      sload(0x00)\n        /* \"Verifiable On-Chain Provenance Tracker/Smart Contract/Tracker.sol\":845:847  id */\n      dup3\n        /* \"Verifiable On-Chain Provenance Tracker/Smart Contract/Tracker.sol\":845:857  id <= currid */\n      gt\n      iszero\n        /* \"Verifiable On-Chain Provenance Tracker/Smart Contract/Tracker.sol\":837:857  id>0 && id <= currid */\n    tag_19:\n        /* \"Verifiable On-Chain Provenance Tracker/Smart Contract/Tracker.sol\":829:873  require(id>0 && id <= currid, \"Invalid ID.\") */\n      tag_20\n      jumpi\n      mload(0x40)\n      0x08c379a000000000000000000000000000000000000000000000000000000000\n      dup2\n      mstore\n      0x04\n      add\n      tag_21\n      swap1\n      tag_22\n      jump\t// in\n    tag_21:\n      mload(0x40)\n      dup1\n      swap2\n      sub\n      swap1\n      revert\n    tag_20:\n        /* \"Verifiable On-Chain Provenance Tracker/Smart Contract/Tracker.sol\":907:912  items */\n      0x01\n        /* \"Verifiable On-Chain Provenance Tracker/Smart Contract/Tracker.sol\":907:916  items[id] */\n      0x00\n        /* \"Verifiable On-Chain Provenance Tracker/Smart Contract/Tracker.sol\":913:915  id */\n      dup4\n        /* \"Verifiable On-Chain Provenance Tracker/Smart Contract/Tracker.sol\":907:916  items[id] */\n      dup2\n      mstore\n      0x20\n      add\n      swap1\n      dup2\n      mstore\n      0x20\n      add\n      0x00\n      keccak256\n        /* \"Verifiable On-Chain Provenance Tracker/Smart Contract/Tracker.sol\":907:922  items[id].owner */\n      0x02\n      add\n      0x00\n      swap1\n      sload\n      swap1\n      0x0100\n      exp\n      swap1\n      div\n      0xffffffffffffffffffffffffffffffffffffffff\n      and\n        /* \"Verifiable On-Chain Provenance Tracker/Smart Contract/Tracker.sol\":892:922  msg.sender ==  items[id].owner */\n      0xffffffffffffffffffffffffffffffffffffffff\n      and\n        /* \"Verifiable On-Chain Provenance Tracker/Smart Contract/Tracker.sol\":892:902  msg.sender */\n      caller\n        /* \"Verifiable On-Chain Provenance Tracker/Smart Contract/Tracker.sol\":892:922  msg.sender ==  items[id].owner */\n      0xffffffffffffffffffffffffffffffffffffffff\n      and\n      eq\n        /* \"Verifiable On-Chain Provenance Tracker/Smart Contract/Tracker.sol\":884:974  require(msg.sender ==  items[id].owner,\"Access Denied only the owner can do this action.\") */\n      tag_23\n      jumpi\n      mload(0x40)\n      0x08c379a000000000000000000000000000000000000000000000000000000000\n      dup2\n      mstore\n      0x04\n      add\n      tag_24\n      swap1\n      tag_25\n      jump\t// in\n    tag_24:\n      mload(0x40)\n      dup1\n      swap2\n      sub\n      swap1\n      revert\n    tag_23:\n        /* \"Verifiable On-Chain Provenance Tracker/Smart Contract/Tracker.sol\":985:1002  address prevowner */\n      0x00\n        /* \"Verifiable On-Chain Provenance Tracker/Smart Contract/Tracker.sol\":1005:1010  items */\n      0x01\n        /* \"Verifiable On-Chain Provenance Tracker/Smart Contract/Tracker.sol\":1005:1014  items[id] */\n      0x00\n        /* \"Verifiable On-Chain Provenance Tracker/Smart Contract/Tracker.sol\":1011:1013  id */\n      dup5\n        /* \"Verifiable On-Chain Provenance Tracker/Smart Contract/Tracker.sol\":1005:1014  items[id] */\n      dup2\n      mstore\n      0x20\n      add\n      swap1\n      dup2\n      mstore\n      0x20\n      add\n      0x00\n      keccak256\n        /* \"Verifiable On-Chain Provenance Tracker/Smart Contract/Tracker.sol\":1005:1020  items[id].owner */\n      0x02\n      add\n      0x00\n      swap1\n      sload\n      swap1\n      0x0100\n      exp\n      swap1\n      div\n      0xffffffffffffffffffffffffffffffffffffffff\n      and\n        /* \"Verifiable On-Chain Provenance Tracker/Smart Contract/Tracker.sol\":985:1020  address prevowner = items[id].owner */\n      swap1\n      pop\n        /* \"Verifiable On-Chain Provenance Tracker/Smart Contract/Tracker.sol\":1049:1057  newOwner */\n      dup2\n        /* \"Verifiable On-Chain Provenance Tracker/Smart Contract/Tracker.sol\":1031:1036  items */\n      0x01\n        /* \"Verifiable On-Chain Provenance Tracker/Smart Contract/Tracker.sol\":1031:1040  items[id] */\n      0x00\n        /* \"Verifiable On-Chain Provenance Tracker/Smart Contract/Tracker.sol\":1037:1039  id */\n      dup6\n        /* \"Verifiable On-Chain Provenance Tracker/Smart Contract/Tracker.sol\":1031:1040  items[id] */\n      dup2\n      mstore\n      0x20\n      add\n      swap1\n      dup2\n      mstore\n      0x20\n      add\n      0x00\n      keccak256\n        /* \"Verifiable On-Chain Provenance Tracker/Smart Contract/Tracker.sol\":1031:1046  items[id].owner */\n      0x02\n      add\n      0x00\n        /* \"Verifiable On-Chain Provenance Tracker/Smart Contract/Tracker.sol\":1031:1057  items[id].owner = newOwner */\n      0x0100\n      exp\n      dup2\n      sload\n      dup2\n      0xffffffffffffffffffffffffffffffffffffffff\n      mul\n      not\n      and\n      swap1\n      dup4\n      0xffffffffffffffffffffffffffffffffffffffff\n      and\n      mul\n      or\n      swap1\n      sstore\n      pop\n        /* \"Verifiable On-Chain Provenance Tracker/Smart Contract/Tracker.sol\":1109:1117  newOwner */\n      dup2\n        /* \"Verifiable On-Chain Provenance Tracker/Smart Contract/Tracker.sol\":1073:1118  OwnershipTransferred(id, prevowner, newOwner) */\n      0xffffffffffffffffffffffffffffffffffffffff\n      and\n        /* \"Verifiable On-Chain Provenance Tracker/Smart Contract/Tracker.sol\":1098:1107  prevowner */\n      dup2\n        /* \"Verifiable On-Chain Provenance Tracker/Smart Contract/Tracker.sol\":1073:1118  OwnershipTransferred(id, prevowner, newOwner) */\n      0xffffffffffffffffffffffffffffffffffffffff\n      and\n        /* \"Verifiable On-Chain Provenance Tracker/Smart Contract/Tracker.sol\":1094:1096  id */\n      dup5\n        /* \"Verifiable On-Chain Provenance Tracker/Smart Contract/Tracker.sol\":1073:1118  OwnershipTransferred(id, prevowner, newOwner) */\n      0x16b85f49bf01212961345d3016c9a531894accf62eb7680f2045d79185cc0ec0\n      mload(0x40)\n      mload(0x40)\n      dup1\n      swap2\n      sub\n      swap1\n      log4\n        /* \"Verifiable On-Chain Provenance Tracker/Smart Contract/Tracker.sol\":818:1126  {... */\n      pop\n        /* \"Verifiable On-Chain Provenance Tracker/Smart Contract/Tracker.sol\":754:1126  function transferOwnership(uint256 id, address newOwner) public {... */\n      pop\n      pop\n      jump\t// out\n        /* \"Verifiable On-Chain Provenance Tracker/Smart Contract/Tracker.sol\":177:202  uint256 public currid = 1 */\n    tag_11:\n      sload(0x00)\n      dup2\n      jump\t// out\n        /* \"Verifiable On-Chain Provenance Tracker/Smart Contract/Tracker.sol\":433:746  function registerItem(string memory _name) public {... */\n    tag_17:\n        /* \"Verifiable On-Chain Provenance Tracker/Smart Contract/Tracker.sol\":494:513  Item memory newItem */\n      0x00\n        /* \"Verifiable On-Chain Provenance Tracker/Smart Contract/Tracker.sol\":516:614  Item({... */\n      mload(0x40)\n      dup1\n      0x60\n      add\n      0x40\n      mstore\n      dup1\n        /* \"Verifiable On-Chain Provenance Tracker/Smart Contract/Tracker.sol\":540:546  currid */\n      sload(0x00)\n        /* \"Verifiable On-Chain Provenance Tracker/Smart Contract/Tracker.sol\":516:614  Item({... */\n      dup2\n      mstore\n      0x20\n      add\n        /* \"Verifiable On-Chain Provenance Tracker/Smart Contract/Tracker.sol\":566:571  _name */\n      dup4\n        /* \"Verifiable On-Chain Provenance Tracker/Smart Contract/Tracker.sol\":516:614  Item({... */\n      dup2\n      mstore\n      0x20\n      add\n        /* \"Verifiable On-Chain Provenance Tracker/Smart Contract/Tracker.sol\":592:602  msg.sender */\n      caller\n        /* \"Verifiable On-Chain Provenance Tracker/Smart Contract/Tracker.sol\":516:614  Item({... */\n      0xffffffffffffffffffffffffffffffffffffffff\n      and\n      dup2\n      mstore\n      pop\n        /* \"Verifiable On-Chain Provenance Tracker/Smart Contract/Tracker.sol\":494:614  Item memory newItem = Item({... */\n      swap1\n      pop\n        /* \"Verifiable On-Chain Provenance Tracker/Smart Contract/Tracker.sol\":641:648  newItem */\n      dup1\n        /* \"Verifiable On-Chain Provenance Tracker/Smart Contract/Tracker.sol\":625:630  items */\n      0x01\n        /* \"Verifiable On-Chain Provenance Tracker/Smart Contract/Tracker.sol\":625:638  items[currid] */\n      0x00\n        /* \"Verifiable On-Chain Provenance Tracker/Smart Contract/Tracker.sol\":631:637  currid */\n      sload(0x00)\n        /* \"Verifiable On-Chain Provenance Tracker/Smart Contract/Tracker.sol\":625:638  items[currid] */\n      dup2\n      mstore\n      0x20\n      add\n      swap1\n      dup2\n      mstore\n      0x20\n      add\n      0x00\n      keccak256\n        /* \"Verifiable On-Chain Provenance Tracker/Smart Contract/Tracker.sol\":625:648  items[currid] = newItem */\n      0x00\n      dup3\n      add\n      mload\n      dup2\n      0x00\n      add\n      sstore\n      0x20\n      dup3\n      add\n      mload\n      dup2\n      0x01\n      add\n      swap1\n      dup2\n      tag_27\n      swap2\n      swap1\n      tag_28\n      jump\t// in\n    tag_27:\n      pop\n      0x40\n      dup3\n      add\n      mload\n      dup2\n      0x02\n      add\n      exp(0x0100, 0x00)\n      dup2\n      sload\n      dup2\n      0xffffffffffffffffffffffffffffffffffffffff\n      mul\n      not\n      and\n      swap1\n      dup4\n      0xffffffffffffffffffffffffffffffffffffffff\n      and\n      mul\n      or\n      swap1\n      sstore\n      pop\n      swap1\n      pop\n      pop\n        /* \"Verifiable On-Chain Provenance Tracker/Smart Contract/Tracker.sol\":691:698  newItem */\n      dup1\n        /* \"Verifiable On-Chain Provenance Tracker/Smart Contract/Tracker.sol\":691:704  newItem.owner */\n      0x40\n      add\n      mload\n        /* \"Verifiable On-Chain Provenance Tracker/Smart Contract/Tracker.sol\":664:719  ItemRegistered(newItem.id, newItem.owner, newItem.name) */\n      0xffffffffffffffffffffffffffffffffffffffff\n      and\n        /* \"Verifiable On-Chain Provenance Tracker/Smart Contract/Tracker.sol\":679:686  newItem */\n      dup2\n        /* \"Verifiable On-Chain Provenance Tracker/Smart Contract/Tracker.sol\":679:689  newItem.id */\n      0x00\n      add\n      mload\n        /* \"Verifiable On-Chain Provenance Tracker/Smart Contract/Tracker.sol\":664:719  ItemRegistered(newItem.id, newItem.owner, newItem.name) */\n      0x6e25be3619376e564cfe010b907906379faef975c78ba0112d80e039a612a04f\n        /* \"Verifiable On-Chain Provenance Tracker/Smart Contract/Tracker.sol\":706:713  newItem */\n      dup4\n        /* \"Verifiable On-Chain Provenance Tracker/Smart Contract/Tracker.sol\":706:718  newItem.name */\n      0x20\n      add\n      mload\n        /* \"Verifiable On-Chain Provenance Tracker/Smart Contract/Tracker.sol\":664:719  ItemRegistered(newItem.id, newItem.owner, newItem.name) */\n      mload(0x40)\n      tag_29\n      swap2\n      swap1\n      tag_30\n      jump\t// in\n    tag_29:\n      mload(0x40)\n      dup1\n      swap2\n      sub\n      swap1\n      log3\n        /* \"Verifiable On-Chain Provenance Tracker/Smart Contract/Tracker.sol\":730:736  currid */\n      0x00\n      0x00\n        /* \"Verifiable On-Chain Provenance Tracker/Smart Contract/Tracker.sol\":730:738  currid++ */\n      dup2\n      sload\n      dup1\n      swap3\n      swap2\n      swap1\n      tag_31\n      swap1\n      tag_32\n      jump\t// in\n    tag_31:\n      swap2\n      swap1\n      pop\n      sstore\n      pop\n        /* \"Verifiable On-Chain Provenance Tracker/Smart Contract/Tracker.sol\":483:746  {... */\n      pop\n        /* \"Verifiable On-Chain Provenance Tracker/Smart Contract/Tracker.sol\":433:746  function registerItem(string memory _name) public {... */\n      pop\n      jump\t// out\n        /* \"#utility.yul\":7:82   */\n    tag_33:\n        /* \"#utility.yul\":40:46   */\n      0x00\n        /* \"#utility.yul\":73:75   */\n      0x40\n        /* \"#utility.yul\":67:76   */\n      mload\n        /* \"#utility.yul\":57:76   */\n      swap1\n      pop\n        /* \"#utility.yul\":7:82   */\n      swap1\n      jump\t// out\n        /* \"#utility.yul\":88:205   */\n    tag_34:\n        /* \"#utility.yul\":197:198   */\n      0x00\n        /* \"#utility.yul\":194:195   */\n      0x00\n        /* \"#utility.yul\":187:199   */\n      revert\n        /* \"#utility.yul\":211:328   */\n    tag_35:\n        /* \"#utility.yul\":320:321   */\n      0x00\n        /* \"#utility.yul\":317:318   */\n      0x00\n        /* \"#utility.yul\":310:322   */\n      revert\n        /* \"#utility.yul\":334:411   */\n    tag_36:\n        /* \"#utility.yul\":371:378   */\n      0x00\n        /* \"#utility.yul\":400:405   */\n      dup2\n        /* \"#utility.yul\":389:405   */\n      swap1\n      pop\n        /* \"#utility.yul\":334:411   */\n      swap2\n      swap1\n      pop\n      jump\t// out\n        /* \"#utility.yul\":417:539   */\n    tag_37:\n        /* \"#utility.yul\":490:514   */\n      tag_86\n        /* \"#utility.yul\":508:513   */\n      dup2\n        /* \"#utility.yul\":490:514   */\n      tag_36\n      jump\t// in\n    tag_86:\n        /* \"#utility.yul\":483:488   */\n      dup2\n        /* \"#utility.yul\":480:515   */\n      eq\n        /* \"#utility.yul\":470:533   */\n      tag_87\n      jumpi\n        /* \"#utility.yul\":529:530   */\n      0x00\n        /* \"#utility.yul\":526:527   */\n      0x00\n        /* \"#utility.yul\":519:531   */\n      revert\n        /* \"#utility.yul\":470:533   */\n    tag_87:\n        /* \"#utility.yul\":417:539   */\n      pop\n      jump\t// out\n        /* \"#utility.yul\":545:684   */\n    tag_38:\n        /* \"#utility.yul\":591:596   */\n      0x00\n        /* \"#utility.yul\":629:635   */\n      dup2\n        /* \"#utility.yul\":616:636   */\n      calldataload\n        /* \"#utility.yul\":607:636   */\n      swap1\n      pop\n        /* \"#utility.yul\":645:678   */\n      tag_89\n        /* \"#utility.yul\":672:677   */\n      dup2\n        /* \"#utility.yul\":645:678   */\n      tag_37\n      jump\t// in\n    tag_89:\n        /* \"#utility.yul\":545:684   */\n      swap3\n      swap2\n      pop\n      pop\n      jump\t// out\n        /* \"#utility.yul\":690:816   */\n    tag_39:\n        /* \"#utility.yul\":727:734   */\n      0x00\n        /* \"#utility.yul\":767:809   */\n      0xffffffffffffffffffffffffffffffffffffffff\n        /* \"#utility.yul\":760:765   */\n      dup3\n        /* \"#utility.yul\":756:810   */\n      and\n        /* \"#utility.yul\":745:810   */\n      swap1\n      pop\n        /* \"#utility.yul\":690:816   */\n      swap2\n      swap1\n      pop\n      jump\t// out\n        /* \"#utility.yul\":822:918   */\n    tag_40:\n        /* \"#utility.yul\":859:866   */\n      0x00\n        /* \"#utility.yul\":888:912   */\n      tag_92\n        /* \"#utility.yul\":906:911   */\n      dup3\n        /* \"#utility.yul\":888:912   */\n      tag_39\n      jump\t// in\n    tag_92:\n        /* \"#utility.yul\":877:912   */\n      swap1\n      pop\n        /* \"#utility.yul\":822:918   */\n      swap2\n      swap1\n      pop\n      jump\t// out\n        /* \"#utility.yul\":924:1046   */\n    tag_41:\n        /* \"#utility.yul\":997:1021   */\n      tag_94\n        /* \"#utility.yul\":1015:1020   */\n      dup2\n        /* \"#utility.yul\":997:1021   */\n      tag_40\n      jump\t// in\n    tag_94:\n        /* \"#utility.yul\":990:995   */\n      dup2\n        /* \"#utility.yul\":987:1022   */\n      eq\n        /* \"#utility.yul\":977:1040   */\n      tag_95\n      jumpi\n        /* \"#utility.yul\":1036:1037   */\n      0x00\n        /* \"#utility.yul\":1033:1034   */\n      0x00\n        /* \"#utility.yul\":1026:1038   */\n      revert\n        /* \"#utility.yul\":977:1040   */\n    tag_95:\n        /* \"#utility.yul\":924:1046   */\n      pop\n      jump\t// out\n        /* \"#utility.yul\":1052:1191   */\n    tag_42:\n        /* \"#utility.yul\":1098:1103   */\n      0x00\n        /* \"#utility.yul\":1136:1142   */\n      dup2\n        /* \"#utility.yul\":1123:1143   */\n      calldataload\n        /* \"#utility.yul\":1114:1143   */\n      swap1\n      pop\n        /* \"#utility.yul\":1152:1185   */\n      tag_97\n        /* \"#utility.yul\":1179:1184   */\n      dup2\n        /* \"#utility.yul\":1152:1185   */\n      tag_41\n      jump\t// in\n    tag_97:\n        /* \"#utility.yul\":1052:1191   */\n      swap3\n      swap2\n      pop\n      pop\n      jump\t// out\n        /* \"#utility.yul\":1197:1671   */\n    tag_8:\n        /* \"#utility.yul\":1265:1271   */\n      0x00\n        /* \"#utility.yul\":1273:1279   */\n      0x00\n        /* \"#utility.yul\":1322:1324   */\n      0x40\n        /* \"#utility.yul\":1310:1319   */\n      dup4\n        /* \"#utility.yul\":1301:1308   */\n      dup6\n        /* \"#utility.yul\":1297:1320   */\n      sub\n        /* \"#utility.yul\":1293:1325   */\n      slt\n        /* \"#utility.yul\":1290:1409   */\n      iszero\n      tag_99\n      jumpi\n        /* \"#utility.yul\":1328:1407   */\n      tag_100\n      tag_34\n      jump\t// in\n    tag_100:\n        /* \"#utility.yul\":1290:1409   */\n    tag_99:\n        /* \"#utility.yul\":1448:1449   */\n      0x00\n        /* \"#utility.yul\":1473:1526   */\n      tag_101\n        /* \"#utility.yul\":1518:1525   */\n      dup6\n        /* \"#utility.yul\":1509:1515   */\n      dup3\n        /* \"#utility.yul\":1498:1507   */\n      dup7\n        /* \"#utility.yul\":1494:1516   */\n      add\n        /* \"#utility.yul\":1473:1526   */\n      tag_38\n      jump\t// in\n    tag_101:\n        /* \"#utility.yul\":1463:1526   */\n      swap3\n      pop\n        /* \"#utility.yul\":1419:1536   */\n      pop\n        /* \"#utility.yul\":1575:1577   */\n      0x20\n        /* \"#utility.yul\":1601:1654   */\n      tag_102\n        /* \"#utility.yul\":1646:1653   */\n      dup6\n        /* \"#utility.yul\":1637:1643   */\n      dup3\n        /* \"#utility.yul\":1626:1635   */\n      dup7\n        /* \"#utility.yul\":1622:1644   */\n      add\n        /* \"#utility.yul\":1601:1654   */\n      tag_42\n      jump\t// in\n    tag_102:\n        /* \"#utility.yul\":1591:1654   */\n      swap2\n      pop\n        /* \"#utility.yul\":1546:1664   */\n      pop\n        /* \"#utility.yul\":1197:1671   */\n      swap3\n      pop\n      swap3\n      swap1\n      pop\n      jump\t// out\n        /* \"#utility.yul\":1677:1795   */\n    tag_43:\n        /* \"#utility.yul\":1764:1788   */\n      tag_104\n        /* \"#utility.yul\":1782:1787   */\n      dup2\n        /* \"#utility.yul\":1764:1788   */\n      tag_36\n      jump\t// in\n    tag_104:\n        /* \"#utility.yul\":1759:1762   */\n      dup3\n        /* \"#utility.yul\":1752:1789   */\n      mstore\n        /* \"#utility.yul\":1677:1795   */\n      pop\n      pop\n      jump\t// out\n        /* \"#utility.yul\":1801:2023   */\n    tag_13:\n        /* \"#utility.yul\":1894:1898   */\n      0x00\n        /* \"#utility.yul\":1932:1934   */\n      0x20\n        /* \"#utility.yul\":1921:1930   */\n      dup3\n        /* \"#utility.yul\":1917:1935   */\n      add\n        /* \"#utility.yul\":1909:1935   */\n      swap1\n      pop\n        /* \"#utility.yul\":1945:2016   */\n      tag_106\n        /* \"#utility.yul\":2013:2014   */\n      0x00\n        /* \"#utility.yul\":2002:2011   */\n      dup4\n        /* \"#utility.yul\":1998:2015   */\n      add\n        /* \"#utility.yul\":1989:1995   */\n      dup5\n        /* \"#utility.yul\":1945:2016   */\n      tag_43\n      jump\t// in\n    tag_106:\n        /* \"#utility.yul\":1801:2023   */\n      swap3\n      swap2\n      pop\n      pop\n      jump\t// out\n        /* \"#utility.yul\":2029:2146   */\n    tag_44:\n        /* \"#utility.yul\":2138:2139   */\n      0x00\n        /* \"#utility.yul\":2135:2136   */\n      0x00\n        /* \"#utility.yul\":2128:2140   */\n      revert\n        /* \"#utility.yul\":2152:2269   */\n    tag_45:\n        /* \"#utility.yul\":2261:2262   */\n      0x00\n        /* \"#utility.yul\":2258:2259   */\n      0x00\n        /* \"#utility.yul\":2251:2263   */\n      revert\n        /* \"#utility.yul\":2275:2377   */\n    tag_46:\n        /* \"#utility.yul\":2316:2322   */\n      0x00\n        /* \"#utility.yul\":2367:2369   */\n      0x1f\n        /* \"#utility.yul\":2363:2370   */\n      not\n        /* \"#utility.yul\":2358:2360   */\n      0x1f\n        /* \"#utility.yul\":2351:2356   */\n      dup4\n        /* \"#utility.yul\":2347:2361   */\n      add\n        /* \"#utility.yul\":2343:2371   */\n      and\n        /* \"#utility.yul\":2333:2371   */\n      swap1\n      pop\n        /* \"#utility.yul\":2275:2377   */\n      swap2\n      swap1\n      pop\n      jump\t// out\n        /* \"#utility.yul\":2383:2563   */\n    tag_47:\n        /* \"#utility.yul\":2431:2508   */\n      0x4e487b7100000000000000000000000000000000000000000000000000000000\n        /* \"#utility.yul\":2428:2429   */\n      0x00\n        /* \"#utility.yul\":2421:2509   */\n      mstore\n        /* \"#utility.yul\":2528:2532   */\n      0x41\n        /* \"#utility.yul\":2525:2526   */\n      0x04\n        /* \"#utility.yul\":2518:2533   */\n      mstore\n        /* \"#utility.yul\":2552:2556   */\n      0x24\n        /* \"#utility.yul\":2549:2550   */\n      0x00\n        /* \"#utility.yul\":2542:2557   */\n      revert\n        /* \"#utility.yul\":2569:2850   */\n    tag_48:\n        /* \"#utility.yul\":2652:2679   */\n      tag_112\n        /* \"#utility.yul\":2674:2678   */\n      dup3\n        /* \"#utility.yul\":2652:2679   */\n      tag_46\n      jump\t// in\n    tag_112:\n        /* \"#utility.yul\":2644:2650   */\n      dup2\n        /* \"#utility.yul\":2640:2680   */\n      add\n        /* \"#utility.yul\":2782:2788   */\n      dup2\n        /* \"#utility.yul\":2770:2780   */\n      dup2\n        /* \"#utility.yul\":2767:2789   */\n      lt\n        /* \"#utility.yul\":2746:2764   */\n      0xffffffffffffffff\n        /* \"#utility.yul\":2734:2744   */\n      dup3\n        /* \"#utility.yul\":2731:2765   */\n      gt\n        /* \"#utility.yul\":2728:2790   */\n      or\n        /* \"#utility.yul\":2725:2813   */\n      iszero\n      tag_113\n      jumpi\n        /* \"#utility.yul\":2793:2811   */\n      tag_114\n      tag_47\n      jump\t// in\n    tag_114:\n        /* \"#utility.yul\":2725:2813   */\n    tag_113:\n        /* \"#utility.yul\":2833:2843   */\n      dup1\n        /* \"#utility.yul\":2829:2831   */\n      0x40\n        /* \"#utility.yul\":2822:2844   */\n      mstore\n        /* \"#utility.yul\":2612:2850   */\n      pop\n        /* \"#utility.yul\":2569:2850   */\n      pop\n      pop\n      jump\t// out\n        /* \"#utility.yul\":2856:2985   */\n    tag_49:\n        /* \"#utility.yul\":2890:2896   */\n      0x00\n        /* \"#utility.yul\":2917:2937   */\n      tag_116\n      tag_33\n      jump\t// in\n    tag_116:\n        /* \"#utility.yul\":2907:2937   */\n      swap1\n      pop\n        /* \"#utility.yul\":2946:2979   */\n      tag_117\n        /* \"#utility.yul\":2974:2978   */\n      dup3\n        /* \"#utility.yul\":2966:2972   */\n      dup3\n        /* \"#utility.yul\":2946:2979   */\n      tag_48\n      jump\t// in\n    tag_117:\n        /* \"#utility.yul\":2856:2985   */\n      swap2\n      swap1\n      pop\n      jump\t// out\n        /* \"#utility.yul\":2991:3299   */\n    tag_50:\n        /* \"#utility.yul\":3053:3057   */\n      0x00\n        /* \"#utility.yul\":3143:3161   */\n      0xffffffffffffffff\n        /* \"#utility.yul\":3135:3141   */\n      dup3\n        /* \"#utility.yul\":3132:3162   */\n      gt\n        /* \"#utility.yul\":3129:3185   */\n      iszero\n      tag_119\n      jumpi\n        /* \"#utility.yul\":3165:3183   */\n      tag_120\n      tag_47\n      jump\t// in\n    tag_120:\n        /* \"#utility.yul\":3129:3185   */\n    tag_119:\n        /* \"#utility.yul\":3203:3232   */\n      tag_121\n        /* \"#utility.yul\":3225:3231   */\n      dup3\n        /* \"#utility.yul\":3203:3232   */\n      tag_46\n      jump\t// in\n    tag_121:\n        /* \"#utility.yul\":3195:3232   */\n      swap1\n      pop\n        /* \"#utility.yul\":3287:3291   */\n      0x20\n        /* \"#utility.yul\":3281:3285   */\n      dup2\n        /* \"#utility.yul\":3277:3292   */\n      add\n        /* \"#utility.yul\":3269:3292   */\n      swap1\n      pop\n        /* \"#utility.yul\":2991:3299   */\n      swap2\n      swap1\n      pop\n      jump\t// out\n        /* \"#utility.yul\":3305:3453   */\n    tag_51:\n        /* \"#utility.yul\":3403:3409   */\n      dup3\n        /* \"#utility.yul\":3398:3401   */\n      dup2\n        /* \"#utility.yul\":3393:3396   */\n      dup4\n        /* \"#utility.yul\":3380:3410   */\n      calldatacopy\n        /* \"#utility.yul\":3444:3445   */\n      0x00\n        /* \"#utility.yul\":3435:3441   */\n      dup4\n        /* \"#utility.yul\":3430:3433   */\n      dup4\n        /* \"#utility.yul\":3426:3442   */\n      add\n        /* \"#utility.yul\":3419:3446   */\n      mstore\n        /* \"#utility.yul\":3305:3453   */\n      pop\n      pop\n      pop\n      jump\t// out\n        /* \"#utility.yul\":3459:3884   */\n    tag_52:\n        /* \"#utility.yul\":3537:3542   */\n      0x00\n        /* \"#utility.yul\":3562:3628   */\n      tag_124\n        /* \"#utility.yul\":3578:3627   */\n      tag_125\n        /* \"#utility.yul\":3620:3626   */\n      dup5\n        /* \"#utility.yul\":3578:3627   */\n      tag_50\n      jump\t// in\n    tag_125:\n        /* \"#utility.yul\":3562:3628   */\n      tag_49\n      jump\t// in\n    tag_124:\n        /* \"#utility.yul\":3553:3628   */\n      swap1\n      pop\n        /* \"#utility.yul\":3651:3657   */\n      dup3\n        /* \"#utility.yul\":3644:3649   */\n      dup2\n        /* \"#utility.yul\":3637:3658   */\n      mstore\n        /* \"#utility.yul\":3689:3693   */\n      0x20\n        /* \"#utility.yul\":3682:3687   */\n      dup2\n        /* \"#utility.yul\":3678:3694   */\n      add\n        /* \"#utility.yul\":3727:3730   */\n      dup5\n        /* \"#utility.yul\":3718:3724   */\n      dup5\n        /* \"#utility.yul\":3713:3716   */\n      dup5\n        /* \"#utility.yul\":3709:3725   */\n      add\n        /* \"#utility.yul\":3706:3731   */\n      gt\n        /* \"#utility.yul\":3703:3815   */\n      iszero\n      tag_126\n      jumpi\n        /* \"#utility.yul\":3734:3813   */\n      tag_127\n      tag_45\n      jump\t// in\n    tag_127:\n        /* \"#utility.yul\":3703:3815   */\n    tag_126:\n        /* \"#utility.yul\":3824:3878   */\n      tag_128\n        /* \"#utility.yul\":3871:3877   */\n      dup5\n        /* \"#utility.yul\":3866:3869   */\n      dup3\n        /* \"#utility.yul\":3861:3864   */\n      dup6\n        /* \"#utility.yul\":3824:3878   */\n      tag_51\n      jump\t// in\n    tag_128:\n        /* \"#utility.yul\":3543:3884   */\n      pop\n        /* \"#utility.yul\":3459:3884   */\n      swap4\n      swap3\n      pop\n      pop\n      pop\n      jump\t// out\n        /* \"#utility.yul\":3904:4244   */\n    tag_53:\n        /* \"#utility.yul\":3960:3965   */\n      0x00\n        /* \"#utility.yul\":4009:4012   */\n      dup3\n        /* \"#utility.yul\":4002:4006   */\n      0x1f\n        /* \"#utility.yul\":3994:4000   */\n      dup4\n        /* \"#utility.yul\":3990:4007   */\n      add\n        /* \"#utility.yul\":3986:4013   */\n      slt\n        /* \"#utility.yul\":3976:4098   */\n      tag_130\n      jumpi\n        /* \"#utility.yul\":4017:4096   */\n      tag_131\n      tag_44\n      jump\t// in\n    tag_131:\n        /* \"#utility.yul\":3976:4098   */\n    tag_130:\n        /* \"#utility.yul\":4134:4140   */\n      dup2\n        /* \"#utility.yul\":4121:4141   */\n      calldataload\n        /* \"#utility.yul\":4159:4238   */\n      tag_132\n        /* \"#utility.yul\":4234:4237   */\n      dup5\n        /* \"#utility.yul\":4226:4232   */\n      dup3\n        /* \"#utility.yul\":4219:4223   */\n      0x20\n        /* \"#utility.yul\":4211:4217   */\n      dup7\n        /* \"#utility.yul\":4207:4224   */\n      add\n        /* \"#utility.yul\":4159:4238   */\n      tag_52\n      jump\t// in\n    tag_132:\n        /* \"#utility.yul\":4150:4238   */\n      swap2\n      pop\n        /* \"#utility.yul\":3966:4244   */\n      pop\n        /* \"#utility.yul\":3904:4244   */\n      swap3\n      swap2\n      pop\n      pop\n      jump\t// out\n        /* \"#utility.yul\":4250:4759   */\n    tag_16:\n        /* \"#utility.yul\":4319:4325   */\n      0x00\n        /* \"#utility.yul\":4368:4370   */\n      0x20\n        /* \"#utility.yul\":4356:4365   */\n      dup3\n        /* \"#utility.yul\":4347:4354   */\n      dup5\n        /* \"#utility.yul\":4343:4366   */\n      sub\n        /* \"#utility.yul\":4339:4371   */\n      slt\n        /* \"#utility.yul\":4336:4455   */\n      iszero\n      tag_134\n      jumpi\n        /* \"#utility.yul\":4374:4453   */\n      tag_135\n      tag_34\n      jump\t// in\n    tag_135:\n        /* \"#utility.yul\":4336:4455   */\n    tag_134:\n        /* \"#utility.yul\":4522:4523   */\n      0x00\n        /* \"#utility.yul\":4511:4520   */\n      dup3\n        /* \"#utility.yul\":4507:4524   */\n      add\n        /* \"#utility.yul\":4494:4525   */\n      calldataload\n        /* \"#utility.yul\":4552:4570   */\n      0xffffffffffffffff\n        /* \"#utility.yul\":4544:4550   */\n      dup2\n        /* \"#utility.yul\":4541:4571   */\n      gt\n        /* \"#utility.yul\":4538:4655   */\n      iszero\n      tag_136\n      jumpi\n        /* \"#utility.yul\":4574:4653   */\n      tag_137\n      tag_35\n      jump\t// in\n    tag_137:\n        /* \"#utility.yul\":4538:4655   */\n    tag_136:\n        /* \"#utility.yul\":4679:4742   */\n      tag_138\n        /* \"#utility.yul\":4734:4741   */\n      dup5\n        /* \"#utility.yul\":4725:4731   */\n      dup3\n        /* \"#utility.yul\":4714:4723   */\n      dup6\n        /* \"#utility.yul\":4710:4732   */\n      add\n        /* \"#utility.yul\":4679:4742   */\n      tag_53\n      jump\t// in\n    tag_138:\n        /* \"#utility.yul\":4669:4742   */\n      swap2\n      pop\n        /* \"#utility.yul\":4465:4752   */\n      pop\n        /* \"#utility.yul\":4250:4759   */\n      swap3\n      swap2\n      pop\n      pop\n      jump\t// out\n        /* \"#utility.yul\":4765:4934   */\n    tag_54:\n        /* \"#utility.yul\":4849:4860   */\n      0x00\n        /* \"#utility.yul\":4883:4889   */\n      dup3\n        /* \"#utility.yul\":4878:4881   */\n      dup3\n        /* \"#utility.yul\":4871:4890   */\n      mstore\n        /* \"#utility.yul\":4923:4927   */\n      0x20\n        /* \"#utility.yul\":4918:4921   */\n      dup3\n        /* \"#utility.yul\":4914:4928   */\n      add\n        /* \"#utility.yul\":4899:4928   */\n      swap1\n      pop\n        /* \"#utility.yul\":4765:4934   */\n      swap3\n      swap2\n      pop\n      pop\n      jump\t// out\n        /* \"#utility.yul\":4940:5101   */\n    tag_55:\n        /* \"#utility.yul\":5080:5093   */\n      0x496e76616c69642049442e000000000000000000000000000000000000000000\n        /* \"#utility.yul\":5076:5077   */\n      0x00\n        /* \"#utility.yul\":5068:5074   */\n      dup3\n        /* \"#utility.yul\":5064:5078   */\n      add\n        /* \"#utility.yul\":5057:5094   */\n      mstore\n        /* \"#utility.yul\":4940:5101   */\n      pop\n      jump\t// out\n        /* \"#utility.yul\":5107:5473   */\n    tag_56:\n        /* \"#utility.yul\":5249:5252   */\n      0x00\n        /* \"#utility.yul\":5270:5337   */\n      tag_142\n        /* \"#utility.yul\":5334:5336   */\n      0x0b\n        /* \"#utility.yul\":5329:5332   */\n      dup4\n        /* \"#utility.yul\":5270:5337   */\n      tag_54\n      jump\t// in\n    tag_142:\n        /* \"#utility.yul\":5263:5337   */\n      swap2\n      pop\n        /* \"#utility.yul\":5346:5439   */\n      tag_143\n        /* \"#utility.yul\":5435:5438   */\n      dup3\n        /* \"#utility.yul\":5346:5439   */\n      tag_55\n      jump\t// in\n    tag_143:\n        /* \"#utility.yul\":5464:5466   */\n      0x20\n        /* \"#utility.yul\":5459:5462   */\n      dup3\n        /* \"#utility.yul\":5455:5467   */\n      add\n        /* \"#utility.yul\":5448:5467   */\n      swap1\n      pop\n        /* \"#utility.yul\":5107:5473   */\n      swap2\n      swap1\n      pop\n      jump\t// out\n        /* \"#utility.yul\":5479:5898   */\n    tag_22:\n        /* \"#utility.yul\":5645:5649   */\n      0x00\n        /* \"#utility.yul\":5683:5685   */\n      0x20\n        /* \"#utility.yul\":5672:5681   */\n      dup3\n        /* \"#utility.yul\":5668:5686   */\n      add\n        /* \"#utility.yul\":5660:5686   */\n      swap1\n      pop\n        /* \"#utility.yul\":5732:5741   */\n      dup2\n        /* \"#utility.yul\":5726:5730   */\n      dup2\n        /* \"#utility.yul\":5722:5742   */\n      sub\n        /* \"#utility.yul\":5718:5719   */\n      0x00\n        /* \"#utility.yul\":5707:5716   */\n      dup4\n        /* \"#utility.yul\":5703:5720   */\n      add\n        /* \"#utility.yul\":5696:5743   */\n      mstore\n        /* \"#utility.yul\":5760:5891   */\n      tag_145\n        /* \"#utility.yul\":5886:5890   */\n      dup2\n        /* \"#utility.yul\":5760:5891   */\n      tag_56\n      jump\t// in\n    tag_145:\n        /* \"#utility.yul\":5752:5891   */\n      swap1\n      pop\n        /* \"#utility.yul\":5479:5898   */\n      swap2\n      swap1\n      pop\n      jump\t// out\n        /* \"#utility.yul\":5904:6139   */\n    tag_57:\n        /* \"#utility.yul\":6044:6078   */\n      0x4163636573732044656e696564206f6e6c7920746865206f776e65722063616e\n        /* \"#utility.yul\":6040:6041   */\n      0x00\n        /* \"#utility.yul\":6032:6038   */\n      dup3\n        /* \"#utility.yul\":6028:6042   */\n      add\n        /* \"#utility.yul\":6021:6079   */\n      mstore\n        /* \"#utility.yul\":6113:6131   */\n      0x20646f207468697320616374696f6e2e00000000000000000000000000000000\n        /* \"#utility.yul\":6108:6110   */\n      0x20\n        /* \"#utility.yul\":6100:6106   */\n      dup3\n        /* \"#utility.yul\":6096:6111   */\n      add\n        /* \"#utility.yul\":6089:6132   */\n      mstore\n        /* \"#utility.yul\":5904:6139   */\n      pop\n      jump\t// out\n        /* \"#utility.yul\":6145:6511   */\n    tag_58:\n        /* \"#utility.yul\":6287:6290   */\n      0x00\n        /* \"#utility.yul\":6308:6375   */\n      tag_148\n        /* \"#utility.yul\":6372:6374   */\n      0x30\n        /* \"#utility.yul\":6367:6370   */\n      dup4\n        /* \"#utility.yul\":6308:6375   */\n      tag_54\n      jump\t// in\n    tag_148:\n        /* \"#utility.yul\":6301:6375   */\n      swap2\n      pop\n        /* \"#utility.yul\":6384:6477   */\n      tag_149\n        /* \"#utility.yul\":6473:6476   */\n      dup3\n        /* \"#utility.yul\":6384:6477   */\n      tag_57\n      jump\t// in\n    tag_149:\n        /* \"#utility.yul\":6502:6504   */\n      0x40\n        /* \"#utility.yul\":6497:6500   */\n      dup3\n        /* \"#utility.yul\":6493:6505   */\n      add\n        /* \"#utility.yul\":6486:6505   */\n      swap1\n      pop\n        /* \"#utility.yul\":6145:6511   */\n      swap2\n      swap1\n      pop\n      jump\t// out\n        /* \"#utility.yul\":6517:6936   */\n    tag_25:\n        /* \"#utility.yul\":6683:6687   */\n      0x00\n        /* \"#utility.yul\":6721:6723   */\n      0x20\n        /* \"#utility.yul\":6710:6719   */\n      dup3\n        /* \"#utility.yul\":6706:6724   */\n      add\n        /* \"#utility.yul\":6698:6724   */\n      swap1\n      pop\n        /* \"#utility.yul\":6770:6779   */\n      dup2\n        /* \"#utility.yul\":6764:6768   */\n      dup2\n        /* \"#utility.yul\":6760:6780   */\n      sub\n        /* \"#utility.yul\":6756:6757   */\n      0x00\n        /* \"#utility.yul\":6745:6754   */\n      dup4\n        /* \"#utility.yul\":6741:6758   */\n      add\n        /* \"#utility.yul\":6734:6781   */\n      mstore\n        /* \"#utility.yul\":6798:6929   */\n      tag_151\n        /* \"#utility.yul\":6924:6928   */\n      dup2\n        /* \"#utility.yul\":6798:6929   */\n      tag_58\n      jump\t// in\n    tag_151:\n        /* \"#utility.yul\":6790:6929   */\n      swap1\n      pop\n        /* \"#utility.yul\":6517:6936   */\n      swap2\n      swap1\n      pop\n      jump\t// out\n        /* \"#utility.yul\":6942:7041   */\n    tag_59:\n        /* \"#utility.yul\":6994:7000   */\n      0x00\n        /* \"#utility.yul\":7028:7033   */\n      dup2\n        /* \"#utility.yul\":7022:7034   */\n      mload\n        /* \"#utility.yul\":7012:7034   */\n      swap1\n      pop\n        /* \"#utility.yul\":6942:7041   */\n      swap2\n      swap1\n      pop\n      jump\t// out\n        /* \"#utility.yul\":7047:7227   */\n    tag_60:\n        /* \"#utility.yul\":7095:7172   */\n      0x4e487b7100000000000000000000000000000000000000000000000000000000\n        /* \"#utility.yul\":7092:7093   */\n      0x00\n        /* \"#utility.yul\":7085:7173   */\n      mstore\n        /* \"#utility.yul\":7192:7196   */\n      0x22\n        /* \"#utility.yul\":7189:7190   */\n      0x04\n        /* \"#utility.yul\":7182:7197   */\n      mstore\n        /* \"#utility.yul\":7216:7220   */\n      0x24\n        /* \"#utility.yul\":7213:7214   */\n      0x00\n        /* \"#utility.yul\":7206:7221   */\n      revert\n        /* \"#utility.yul\":7233:7553   */\n    tag_61:\n        /* \"#utility.yul\":7277:7283   */\n      0x00\n        /* \"#utility.yul\":7314:7315   */\n      0x02\n        /* \"#utility.yul\":7308:7312   */\n      dup3\n        /* \"#utility.yul\":7304:7316   */\n      div\n        /* \"#utility.yul\":7294:7316   */\n      swap1\n      pop\n        /* \"#utility.yul\":7361:7362   */\n      0x01\n        /* \"#utility.yul\":7355:7359   */\n      dup3\n        /* \"#utility.yul\":7351:7363   */\n      and\n        /* \"#utility.yul\":7382:7400   */\n      dup1\n        /* \"#utility.yul\":7372:7453   */\n      tag_155\n      jumpi\n        /* \"#utility.yul\":7438:7442   */\n      0x7f\n        /* \"#utility.yul\":7430:7436   */\n      dup3\n        /* \"#utility.yul\":7426:7443   */\n      and\n        /* \"#utility.yul\":7416:7443   */\n      swap2\n      pop\n        /* \"#utility.yul\":7372:7453   */\n    tag_155:\n        /* \"#utility.yul\":7500:7502   */\n      0x20\n        /* \"#utility.yul\":7492:7498   */\n      dup3\n        /* \"#utility.yul\":7489:7503   */\n      lt\n        /* \"#utility.yul\":7469:7487   */\n      dup2\n        /* \"#utility.yul\":7466:7504   */\n      sub\n        /* \"#utility.yul\":7463:7547   */\n      tag_156\n      jumpi\n        /* \"#utility.yul\":7519:7537   */\n      tag_157\n      tag_60\n      jump\t// in\n    tag_157:\n        /* \"#utility.yul\":7463:7547   */\n    tag_156:\n        /* \"#utility.yul\":7284:7553   */\n      pop\n        /* \"#utility.yul\":7233:7553   */\n      swap2\n      swap1\n      pop\n      jump\t// out\n        /* \"#utility.yul\":7559:7700   */\n    tag_62:\n        /* \"#utility.yul\":7608:7612   */\n      0x00\n        /* \"#utility.yul\":7631:7634   */\n      dup2\n        /* \"#utility.yul\":7623:7634   */\n      swap1\n      pop\n        /* \"#utility.yul\":7654:7657   */\n      dup2\n        /* \"#utility.yul\":7651:7652   */\n      0x00\n        /* \"#utility.yul\":7644:7658   */\n      mstore\n        /* \"#utility.yul\":7688:7692   */\n      0x20\n        /* \"#utility.yul\":7685:7686   */\n      0x00\n        /* \"#utility.yul\":7675:7693   */\n      keccak256\n        /* \"#utility.yul\":7667:7693   */\n      swap1\n      pop\n        /* \"#utility.yul\":7559:7700   */\n      swap2\n      swap1\n      pop\n      jump\t// out\n        /* \"#utility.yul\":7706:7799   */\n    tag_63:\n        /* \"#utility.yul\":7743:7749   */\n      0x00\n        /* \"#utility.yul\":7790:7792   */\n      0x20\n        /* \"#utility.yul\":7785:7787   */\n      0x1f\n        /* \"#utility.yul\":7778:7783   */\n      dup4\n        /* \"#utility.yul\":7774:7788   */\n      add\n        /* \"#utility.yul\":7770:7793   */\n      div\n        /* \"#utility.yul\":7760:7793   */\n      swap1\n      pop\n        /* \"#utility.yul\":7706:7799   */\n      swap2\n      swap1\n      pop\n      jump\t// out\n        /* \"#utility.yul\":7805:7912   */\n    tag_64:\n        /* \"#utility.yul\":7849:7857   */\n      0x00\n        /* \"#utility.yul\":7899:7904   */\n      dup3\n        /* \"#utility.yul\":7893:7897   */\n      dup3\n        /* \"#utility.yul\":7889:7905   */\n      shl\n        /* \"#utility.yul\":7868:7905   */\n      swap1\n      pop\n        /* \"#utility.yul\":7805:7912   */\n      swap3\n      swap2\n      pop\n      pop\n      jump\t// out\n        /* \"#utility.yul\":7918:8311   */\n    tag_65:\n        /* \"#utility.yul\":7987:7993   */\n      0x00\n        /* \"#utility.yul\":8037:8038   */\n      0x08\n        /* \"#utility.yul\":8025:8035   */\n      dup4\n        /* \"#utility.yul\":8021:8039   */\n      mul\n        /* \"#utility.yul\":8060:8157   */\n      tag_162\n        /* \"#utility.yul\":8090:8156   */\n      0xffffffffffffffffffffffffffffffffffffffffffffffffffffffffffffffff\n        /* \"#utility.yul\":8079:8088   */\n      dup3\n        /* \"#utility.yul\":8060:8157   */\n      tag_64\n      jump\t// in\n    tag_162:\n        /* \"#utility.yul\":8178:8217   */\n      tag_163\n        /* \"#utility.yul\":8208:8216   */\n      dup7\n        /* \"#utility.yul\":8197:8206   */\n      dup4\n        /* \"#utility.yul\":8178:8217   */\n      tag_64\n      jump\t// in\n    tag_163:\n        /* \"#utility.yul\":8166:8217   */\n      swap6\n      pop\n        /* \"#utility.yul\":8250:8254   */\n      dup1\n        /* \"#utility.yul\":8246:8255   */\n      not\n        /* \"#utility.yul\":8239:8244   */\n      dup5\n        /* \"#utility.yul\":8235:8256   */\n      and\n        /* \"#utility.yul\":8226:8256   */\n      swap4\n      pop\n        /* \"#utility.yul\":8299:8303   */\n      dup1\n        /* \"#utility.yul\":8289:8297   */\n      dup7\n        /* \"#utility.yul\":8285:8304   */\n      and\n        /* \"#utility.yul\":8278:8283   */\n      dup5\n        /* \"#utility.yul\":8275:8305   */\n      or\n        /* \"#utility.yul\":8265:8305   */\n      swap3\n      pop\n        /* \"#utility.yul\":7994:8311   */\n      pop\n      pop\n        /* \"#utility.yul\":7918:8311   */\n      swap4\n      swap3\n      pop\n      pop\n      pop\n      jump\t// out\n        /* \"#utility.yul\":8317:8377   */\n    tag_66:\n        /* \"#utility.yul\":8345:8348   */\n      0x00\n        /* \"#utility.yul\":8366:8371   */\n      dup2\n        /* \"#utility.yul\":8359:8371   */\n      swap1\n      pop\n        /* \"#utility.yul\":8317:8377   */\n      swap2\n      swap1\n      pop\n      jump\t// out\n        /* \"#utility.yul\":8383:8525   */\n    tag_67:\n        /* \"#utility.yul\":8433:8442   */\n      0x00\n        /* \"#utility.yul\":8466:8519   */\n      tag_166\n        /* \"#utility.yul\":8484:8518   */\n      tag_167\n        /* \"#utility.yul\":8493:8517   */\n      tag_168\n        /* \"#utility.yul\":8511:8516   */\n      dup5\n        /* \"#utility.yul\":8493:8517   */\n      tag_36\n      jump\t// in\n    tag_168:\n        /* \"#utility.yul\":8484:8518   */\n      tag_66\n      jump\t// in\n    tag_167:\n        /* \"#utility.yul\":8466:8519   */\n      tag_36\n      jump\t// in\n    tag_166:\n        /* \"#utility.yul\":8453:8519   */\n      swap1\n      pop\n        /* \"#utility.yul\":8383:8525   */\n      swap2\n      swap1\n      pop\n      jump\t// out\n        /* \"#utility.yul\":8531:8606   */\n    tag_68:\n        /* \"#utility.yul\":8574:8577   */\n      0x00\n        /* \"#utility.yul\":8595:8600   */\n      dup2\n        /* \"#utility.yul\":8588:8600   */\n      swap1\n      pop\n        /* \"#utility.yul\":8531:8606   */\n      swap2\n      swap1\n      pop\n      jump\t// out\n        /* \"#utility.yul\":8612:8881   */\n    tag_69:\n        /* \"#utility.yul\":8722:8761   */\n      tag_171\n        /* \"#utility.yul\":8753:8760   */\n      dup4\n        /* \"#utility.yul\":8722:8761   */\n      tag_67\n      jump\t// in\n    tag_171:\n        /* \"#utility.yul\":8783:8874   */\n      tag_172\n        /* \"#utility.yul\":8832:8873   */\n      tag_173\n        /* \"#utility.yul\":8856:8872   */\n      dup3\n        /* \"#utility.yul\":8832:8873   */\n      tag_68\n      jump\t// in\n    tag_173:\n        /* \"#utility.yul\":8824:8830   */\n      dup5\n        /* \"#utility.yul\":8817:8821   */\n      dup5\n        /* \"#utility.yul\":8811:8822   */\n      sload\n        /* \"#utility.yul\":8783:8874   */\n      tag_65\n      jump\t// in\n    tag_172:\n        /* \"#utility.yul\":8777:8781   */\n      dup3\n        /* \"#utility.yul\":8770:8875   */\n      sstore\n        /* \"#utility.yul\":8688:8881   */\n      pop\n        /* \"#utility.yul\":8612:8881   */\n      pop\n      pop\n      pop\n      jump\t// out\n        /* \"#utility.yul\":8887:8960   */\n    tag_70:\n        /* \"#utility.yul\":8932:8935   */\n      0x00\n        /* \"#utility.yul\":8953:8954   */\n      0x00\n        /* \"#utility.yul\":8946:8954   */\n      swap1\n      pop\n        /* \"#utility.yul\":8887:8960   */\n      swap1\n      jump\t// out\n        /* \"#utility.yul\":8966:9155   */\n    tag_71:\n        /* \"#utility.yul\":9043:9075   */\n      tag_176\n      tag_70\n      jump\t// in\n    tag_176:\n        /* \"#utility.yul\":9084:9149   */\n      tag_177\n        /* \"#utility.yul\":9142:9148   */\n      dup2\n        /* \"#utility.yul\":9134:9140   */\n      dup5\n        /* \"#utility.yul\":9128:9132   */\n      dup5\n        /* \"#utility.yul\":9084:9149   */\n      tag_69\n      jump\t// in\n    tag_177:\n        /* \"#utility.yul\":9019:9155   */\n      pop\n        /* \"#utility.yul\":8966:9155   */\n      pop\n      pop\n      jump\t// out\n        /* \"#utility.yul\":9161:9347   */\n    tag_72:\n        /* \"#utility.yul\":9221:9341   */\n    tag_179:\n        /* \"#utility.yul\":9238:9241   */\n      dup2\n        /* \"#utility.yul\":9231:9236   */\n      dup2\n        /* \"#utility.yul\":9228:9242   */\n      lt\n        /* \"#utility.yul\":9221:9341   */\n      iszero\n      tag_181\n      jumpi\n        /* \"#utility.yul\":9292:9331   */\n      tag_182\n        /* \"#utility.yul\":9329:9330   */\n      0x00\n        /* \"#utility.yul\":9322:9327   */\n      dup3\n        /* \"#utility.yul\":9292:9331   */\n      tag_71\n      jump\t// in\n    tag_182:\n        /* \"#utility.yul\":9265:9266   */\n      0x01\n        /* \"#utility.yul\":9258:9263   */\n      dup2\n        /* \"#utility.yul\":9254:9267   */\n      add\n        /* \"#utility.yul\":9245:9267   */\n      swap1\n      pop\n        /* \"#utility.yul\":9221:9341   */\n      jump(tag_179)\n    tag_181:\n        /* \"#utility.yul\":9161:9347   */\n      pop\n      pop\n      jump\t// out\n        /* \"#utility.yul\":9353:9896   */\n    tag_73:\n        /* \"#utility.yul\":9454:9456   */\n      0x1f\n        /* \"#utility.yul\":9449:9452   */\n      dup3\n        /* \"#utility.yul\":9446:9457   */\n      gt\n        /* \"#utility.yul\":9443:9889   */\n      iszero\n      tag_184\n      jumpi\n        /* \"#utility.yul\":9488:9526   */\n      tag_185\n        /* \"#utility.yul\":9520:9525   */\n      dup2\n        /* \"#utility.yul\":9488:9526   */\n      tag_62\n      jump\t// in\n    tag_185:\n        /* \"#utility.yul\":9572:9601   */\n      tag_186\n        /* \"#utility.yul\":9590:9600   */\n      dup5\n        /* \"#utility.yul\":9572:9601   */\n      tag_63\n      jump\t// in\n    tag_186:\n        /* \"#utility.yul\":9562:9570   */\n      dup2\n        /* \"#utility.yul\":9558:9602   */\n      add\n        /* \"#utility.yul\":9755:9757   */\n      0x20\n        /* \"#utility.yul\":9743:9753   */\n      dup6\n        /* \"#utility.yul\":9740:9758   */\n      lt\n        /* \"#utility.yul\":9737:9786   */\n      iszero\n      tag_187\n      jumpi\n        /* \"#utility.yul\":9776:9784   */\n      dup2\n        /* \"#utility.yul\":9761:9784   */\n      swap1\n      pop\n        /* \"#utility.yul\":9737:9786   */\n    tag_187:\n        /* \"#utility.yul\":9799:9879   */\n      tag_188\n        /* \"#utility.yul\":9855:9877   */\n      tag_189\n        /* \"#utility.yul\":9873:9876   */\n      dup6\n        /* \"#utility.yul\":9855:9877   */\n      tag_63\n      jump\t// in\n    tag_189:\n        /* \"#utility.yul\":9845:9853   */\n      dup4\n        /* \"#utility.yul\":9841:9878   */\n      add\n        /* \"#utility.yul\":9828:9839   */\n      dup3\n        /* \"#utility.yul\":9799:9879   */\n      tag_72\n      jump\t// in\n    tag_188:\n        /* \"#utility.yul\":9458:9889   */\n      pop\n      pop\n        /* \"#utility.yul\":9443:9889   */\n    tag_184:\n        /* \"#utility.yul\":9353:9896   */\n      pop\n      pop\n      pop\n      jump\t// out\n        /* \"#utility.yul\":9902:10019   */\n    tag_74:\n        /* \"#utility.yul\":9956:9964   */\n      0x00\n        /* \"#utility.yul\":10006:10011   */\n      dup3\n        /* \"#utility.yul\":10000:10004   */\n      dup3\n        /* \"#utility.yul\":9996:10012   */\n      shr\n        /* \"#utility.yul\":9975:10012   */\n      swap1\n      pop\n        /* \"#utility.yul\":9902:10019   */\n      swap3\n      swap2\n      pop\n      pop\n      jump\t// out\n        /* \"#utility.yul\":10025:10194   */\n    tag_75:\n        /* \"#utility.yul\":10069:10075   */\n      0x00\n        /* \"#utility.yul\":10102:10153   */\n      tag_192\n        /* \"#utility.yul\":10150:10151   */\n      0x00\n        /* \"#utility.yul\":10146:10152   */\n      not\n        /* \"#utility.yul\":10138:10143   */\n      dup5\n        /* \"#utility.yul\":10135:10136   */\n      0x08\n        /* \"#utility.yul\":10131:10144   */\n      mul\n        /* \"#utility.yul\":10102:10153   */\n      tag_74\n      jump\t// in\n    tag_192:\n        /* \"#utility.yul\":10098:10154   */\n      not\n        /* \"#utility.yul\":10183:10187   */\n      dup1\n        /* \"#utility.yul\":10177:10181   */\n      dup4\n        /* \"#utility.yul\":10173:10188   */\n      and\n        /* \"#utility.yul\":10163:10188   */\n      swap2\n      pop\n        /* \"#utility.yul\":10076:10194   */\n      pop\n        /* \"#utility.yul\":10025:10194   */\n      swap3\n      swap2\n      pop\n      pop\n      jump\t// out\n        /* \"#utility.yul\":10199:10494   */\n    tag_76:\n        /* \"#utility.yul\":10275:10279   */\n      0x00\n        /* \"#utility.yul\":10421:10450   */\n      tag_194\n        /* \"#utility.yul\":10446:10449   */\n      dup4\n        /* \"#utility.yul\":10440:10444   */\n      dup4\n        /* \"#utility.yul\":10421:10450   */\n      tag_75\n      jump\t// in\n    tag_194:\n        /* \"#utility.yul\":10413:10450   */\n      swap2\n      pop\n        /* \"#utility.yul\":10483:10486   */\n      dup3\n        /* \"#utility.yul\":10480:10481   */\n      0x02\n        /* \"#utility.yul\":10476:10487   */\n      mul\n        /* \"#utility.yul\":10470:10474   */\n      dup3\n        /* \"#utility.yul\":10467:10488   */\n      or\n        /* \"#utility.yul\":10459:10488   */\n      swap1\n      pop\n        /* \"#utility.yul\":10199:10494   */\n      swap3\n      swap2\n      pop\n      pop\n      jump\t// out\n        /* \"#utility.yul\":10499:11894   */\n    tag_28:\n        /* \"#utility.yul\":10616:10653   */\n      tag_196\n        /* \"#utility.yul\":10649:10652   */\n      dup3\n        /* \"#utility.yul\":10616:10653   */\n      tag_59\n      jump\t// in\n    tag_196:\n        /* \"#utility.yul\":10718:10736   */\n      0xffffffffffffffff\n        /* \"#utility.yul\":10710:10716   */\n      dup2\n        /* \"#utility.yul\":10707:10737   */\n      gt\n        /* \"#utility.yul\":10704:10760   */\n      iszero\n      tag_197\n      jumpi\n        /* \"#utility.yul\":10740:10758   */\n      tag_198\n      tag_47\n      jump\t// in\n    tag_198:\n        /* \"#utility.yul\":10704:10760   */\n    tag_197:\n        /* \"#utility.yul\":10784:10822   */\n      tag_199\n        /* \"#utility.yul\":10816:10820   */\n      dup3\n        /* \"#utility.yul\":10810:10821   */\n      sload\n        /* \"#utility.yul\":10784:10822   */\n      tag_61\n      jump\t// in\n    tag_199:\n        /* \"#utility.yul\":10869:10936   */\n      tag_200\n        /* \"#utility.yul\":10929:10935   */\n      dup3\n        /* \"#utility.yul\":10921:10927   */\n      dup3\n        /* \"#utility.yul\":10915:10919   */\n      dup6\n        /* \"#utility.yul\":10869:10936   */\n      tag_73\n      jump\t// in\n    tag_200:\n        /* \"#utility.yul\":10963:10964   */\n      0x00\n        /* \"#utility.yul\":10987:10991   */\n      0x20\n        /* \"#utility.yul\":10974:10991   */\n      swap1\n      pop\n        /* \"#utility.yul\":11019:11021   */\n      0x1f\n        /* \"#utility.yul\":11011:11017   */\n      dup4\n        /* \"#utility.yul\":11008:11022   */\n      gt\n        /* \"#utility.yul\":11036:11037   */\n      0x01\n        /* \"#utility.yul\":11031:11649   */\n      dup2\n      eq\n      tag_202\n      jumpi\n        /* \"#utility.yul\":11693:11694   */\n      0x00\n        /* \"#utility.yul\":11710:11716   */\n      dup5\n        /* \"#utility.yul\":11707:11784   */\n      iszero\n      tag_203\n      jumpi\n        /* \"#utility.yul\":11759:11768   */\n      dup3\n        /* \"#utility.yul\":11754:11757   */\n      dup8\n        /* \"#utility.yul\":11750:11769   */\n      add\n        /* \"#utility.yul\":11744:11770   */\n      mload\n        /* \"#utility.yul\":11735:11770   */\n      swap1\n      pop\n        /* \"#utility.yul\":11707:11784   */\n    tag_203:\n        /* \"#utility.yul\":11810:11877   */\n      tag_204\n        /* \"#utility.yul\":11870:11876   */\n      dup6\n        /* \"#utility.yul\":11863:11868   */\n      dup3\n        /* \"#utility.yul\":11810:11877   */\n      tag_76\n      jump\t// in\n    tag_204:\n        /* \"#utility.yul\":11804:11808   */\n      dup7\n        /* \"#utility.yul\":11797:11878   */\n      sstore\n        /* \"#utility.yul\":11666:11888   */\n      pop\n        /* \"#utility.yul\":11001:11888   */\n      jump(tag_201)\n        /* \"#utility.yul\":11031:11649   */\n    tag_202:\n        /* \"#utility.yul\":11083:11087   */\n      0x1f\n        /* \"#utility.yul\":11079:11088   */\n      not\n        /* \"#utility.yul\":11071:11077   */\n      dup5\n        /* \"#utility.yul\":11067:11089   */\n      and\n        /* \"#utility.yul\":11117:11154   */\n      tag_205\n        /* \"#utility.yul\":11149:11153   */\n      dup7\n        /* \"#utility.yul\":11117:11154   */\n      tag_62\n      jump\t// in\n    tag_205:\n        /* \"#utility.yul\":11176:11177   */\n      0x00\n        /* \"#utility.yul\":11190:11398   */\n    tag_206:\n        /* \"#utility.yul\":11204:11211   */\n      dup3\n        /* \"#utility.yul\":11201:11202   */\n      dup2\n        /* \"#utility.yul\":11198:11212   */\n      lt\n        /* \"#utility.yul\":11190:11398   */\n      iszero\n      tag_208\n      jumpi\n        /* \"#utility.yul\":11283:11292   */\n      dup5\n        /* \"#utility.yul\":11278:11281   */\n      dup10\n        /* \"#utility.yul\":11274:11293   */\n      add\n        /* \"#utility.yul\":11268:11294   */\n      mload\n        /* \"#utility.yul\":11260:11266   */\n      dup3\n        /* \"#utility.yul\":11253:11295   */\n      sstore\n        /* \"#utility.yul\":11334:11335   */\n      0x01\n        /* \"#utility.yul\":11326:11332   */\n      dup3\n        /* \"#utility.yul\":11322:11336   */\n      add\n        /* \"#utility.yul\":11312:11336   */\n      swap2\n      pop\n        /* \"#utility.yul\":11381:11383   */\n      0x20\n        /* \"#utility.yul\":11370:11379   */\n      dup6\n        /* \"#utility.yul\":11366:11384   */\n      add\n        /* \"#utility.yul\":11353:11384   */\n      swap5\n      pop\n        /* \"#utility.yul\":11227:11231   */\n      0x20\n        /* \"#utility.yul\":11224:11225   */\n      dup2\n        /* \"#utility.yul\":11220:11232   */\n      add\n        /* \"#utility.yul\":11215:11232   */\n      swap1\n      pop\n        /* \"#utility.yul\":11190:11398   */\n      jump(tag_206)\n    tag_208:\n        /* \"#utility.yul\":11426:11432   */\n      dup7\n        /* \"#utility.yul\":11417:11424   */\n      dup4\n        /* \"#utility.yul\":11414:11433   */\n      lt\n        /* \"#utility.yul\":11411:11590   */\n      iszero\n      tag_209\n      jumpi\n        /* \"#utility.yul\":11484:11493   */\n      dup5\n        /* \"#utility.yul\":11479:11482   */\n      dup10\n        /* \"#utility.yul\":11475:11494   */\n      add\n        /* \"#utility.yul\":11469:11495   */\n      mload\n        /* \"#utility.yul\":11527:11575   */\n      tag_210\n        /* \"#utility.yul\":11569:11573   */\n      0x1f\n        /* \"#utility.yul\":11561:11567   */\n      dup10\n        /* \"#utility.yul\":11557:11574   */\n      and\n        /* \"#utility.yul\":11546:11555   */\n      dup3\n        /* \"#utility.yul\":11527:11575   */\n      tag_75\n      jump\t// in\n    tag_210:\n        /* \"#utility.yul\":11519:11525   */\n      dup4\n        /* \"#utility.yul\":11512:11576   */\n      sstore\n        /* \"#utility.yul\":11434:11590   */\n      pop\n        /* \"#utility.yul\":11411:11590   */\n    tag_209:\n        /* \"#utility.yul\":11636:11637   */\n      0x01\n        /* \"#utility.yul\":11632:11633   */\n      0x02\n        /* \"#utility.yul\":11624:11630   */\n      dup9\n        /* \"#utility.yul\":11620:11634   */\n      mul\n        /* \"#utility.yul\":11616:11638   */\n      add\n        /* \"#utility.yul\":11610:11614   */\n      dup9\n        /* \"#utility.yul\":11603:11639   */\n      sstore\n        /* \"#utility.yul\":11038:11649   */\n      pop\n      pop\n      pop\n        /* \"#utility.yul\":11001:11888   */\n    tag_201:\n      pop\n        /* \"#utility.yul\":10591:11894   */\n      pop\n      pop\n      pop\n        /* \"#utility.yul\":10499:11894   */\n      pop\n      pop\n      jump\t// out\n        /* \"#utility.yul\":11900:12039   */\n    tag_77:\n        /* \"#utility.yul\":11989:11995   */\n      dup3\n        /* \"#utility.yul\":11984:11987   */\n      dup2\n        /* \"#utility.yul\":11979:11982   */\n      dup4\n        /* \"#utility.yul\":11973:11996   */\n      mcopy\n        /* \"#utility.yul\":12030:12031   */\n      0x00\n        /* \"#utility.yul\":12021:12027   */\n      dup4\n        /* \"#utility.yul\":12016:12019   */\n      dup4\n        /* \"#utility.yul\":12012:12028   */\n      add\n        /* \"#utility.yul\":12005:12032   */\n      mstore\n        /* \"#utility.yul\":11900:12039   */\n      pop\n      pop\n      pop\n      jump\t// out\n        /* \"#utility.yul\":12045:12422   */\n    tag_78:\n        /* \"#utility.yul\":12133:12136   */\n      0x00\n        /* \"#utility.yul\":12161:12200   */\n      tag_213\n        /* \"#utility.yul\":12194:12199   */\n      dup3\n        /* \"#utility.yul\":12161:12200   */\n      tag_59\n      jump\t// in\n    tag_213:\n        /* \"#utility.yul\":12216:12287   */\n      tag_214\n        /* \"#utility.yul\":12280:12286   */\n      dup2\n        /* \"#utility.yul\":12275:12278   */\n      dup6\n        /* \"#utility.yul\":12216:12287   */\n      tag_54\n      jump\t// in\n    tag_214:\n        /* \"#utility.yul\":12209:12287   */\n      swap4\n      pop\n        /* \"#utility.yul\":12296:12361   */\n      tag_215\n        /* \"#utility.yul\":12354:12360   */\n      dup2\n        /* \"#utility.yul\":12349:12352   */\n      dup6\n        /* \"#utility.yul\":12342:12346   */\n      0x20\n        /* \"#utility.yul\":12335:12340   */\n      dup7\n        /* \"#utility.yul\":12331:12347   */\n      add\n        /* \"#utility.yul\":12296:12361   */\n      tag_77\n      jump\t// in\n    tag_215:\n        /* \"#utility.yul\":12386:12415   */\n      tag_216\n        /* \"#utility.yul\":12408:12414   */\n      dup2\n        /* \"#utility.yul\":12386:12415   */\n      tag_46\n      jump\t// in\n    tag_216:\n        /* \"#utility.yul\":12381:12384   */\n      dup5\n        /* \"#utility.yul\":12377:12416   */\n      add\n        /* \"#utility.yul\":12370:12416   */\n      swap2\n      pop\n        /* \"#utility.yul\":12137:12422   */\n      pop\n        /* \"#utility.yul\":12045:12422   */\n      swap3\n      swap2\n      pop\n      pop\n      jump\t// out\n        /* \"#utility.yul\":12428:12741   */\n    tag_30:\n        /* \"#utility.yul\":12541:12545   */\n      0x00\n        /* \"#utility.yul\":12579:12581   */\n      0x20\n        /* \"#utility.yul\":12568:12577   */\n      dup3\n        /* \"#utility.yul\":12564:12582   */\n      add\n        /* \"#utility.yul\":12556:12582   */\n      swap1\n      pop\n        /* \"#utility.yul\":12628:12637   */\n      dup2\n        /* \"#utility.yul\":12622:12626   */\n      dup2\n        /* \"#utility.yul\":12618:12638   */\n      sub\n        /* \"#utility.yul\":12614:12615   */\n      0x00\n        /* \"#utility.yul\":12603:12612   */\n      dup4\n        /* \"#utility.yul\":12599:12616   */\n      add\n        /* \"#utility.yul\":12592:12639   */\n      mstore\n        /* \"#utility.yul\":12656:12734   */\n      tag_218\n        /* \"#utility.yul\":12729:12733   */\n      dup2\n        /* \"#utility.yul\":12720:12726   */\n      dup5\n        /* \"#utility.yul\":12656:12734   */\n      tag_78\n      jump\t// in\n    tag_218:\n        /* \"#utility.yul\":12648:12734   */\n      swap1\n      pop\n        /* \"#utility.yul\":12428:12741   */\n      swap3\n      swap2\n      pop\n      pop\n      jump\t// out\n        /* \"#utility.yul\":12747:12927   */\n    tag_79:\n        /* \"#utility.yul\":12795:12872   */\n      0x4e487b7100000000000000000000000000000000000000000000000000000000\n        /* \"#utility.yul\":12792:12793   */\n      0x00\n        /* \"#utility.yul\":12785:12873   */\n      mstore\n        /* \"#utility.yul\":12892:12896   */\n      0x11\n        /* \"#utility.yul\":12889:12890   */\n      0x04\n        /* \"#utility.yul\":12882:12897   */\n      mstore\n        /* \"#utility.yul\":12916:12920   */\n      0x24\n        /* \"#utility.yul\":12913:12914   */\n      0x00\n        /* \"#utility.yul\":12906:12921   */\n      revert\n        /* \"#utility.yul\":12933:13166   */\n    tag_32:\n        /* \"#utility.yul\":12972:12975   */\n      0x00\n        /* \"#utility.yul\":12995:13019   */\n      tag_221\n        /* \"#utility.yul\":13013:13018   */\n      dup3\n        /* \"#utility.yul\":12995:13019   */\n      tag_36\n      jump\t// in\n    tag_221:\n        /* \"#utility.yul\":12986:13019   */\n      swap2\n      pop\n        /* \"#utility.yul\":13041:13107   */\n      0xffffffffffffffffffffffffffffffffffffffffffffffffffffffffffffffff\n        /* \"#utility.yul\":13034:13039   */\n      dup3\n        /* \"#utility.yul\":13031:13108   */\n      sub\n        /* \"#utility.yul\":13028:13131   */\n      tag_222\n      jumpi\n        /* \"#utility.yul\":13111:13129   */\n      tag_223\n      tag_79\n      jump\t// in\n    tag_223:\n        /* \"#utility.yul\":13028:13131   */\n    tag_222:\n        /* \"#utility.yul\":13158:13159   */\n      0x01\n        /* \"#utility.yul\":13151:13156   */\n      dup3\n        /* \"#utility.yul\":13147:13160   */\n      add\n        /* \"#utility.yul\":13140:13160   */\n      swap1\n      pop\n        /* \"#utility.yul\":12933:13166   */\n      swap2\n      swap1\n      pop\n      jump\t// out\n\n    auxdata: 0xa264697066735822122004d517fbf47f0d00e2db1f7e7b8223eafe3649442c3640e11e67f24c7dcc975d64736f6c634300081e0033\n}\n",
				"bytecode": {
					"linkReferences": {},
					"object": "608060405260015f553480156012575f5ffd5b50610b0d806100205f395ff3fe608060405234801561000f575f5ffd5b506004361061003f575f3560e01c806329507f73146100435780632cbbf6641461005f578063adce7b881461007d575b5f5ffd5b61005d60048036038101906100589190610438565b610099565b005b610067610272565b6040516100749190610485565b60405180910390f35b610097600480360381019061009291906105da565b610277565b005b5f821180156100a957505f548211155b6100e8576040517f08c379a00000000000000000000000000000000000000000000000000000000081526004016100df9061067b565b60405180910390fd5b60015f8381526020019081526020015f206002015f9054906101000a900473ffffffffffffffffffffffffffffffffffffffff1673ffffffffffffffffffffffffffffffffffffffff163373ffffffffffffffffffffffffffffffffffffffff1614610189576040517f08c379a000000000000000000000000000000000000000000000000000000000815260040161018090610709565b60405180910390fd5b5f60015f8481526020019081526020015f206002015f9054906101000a900473ffffffffffffffffffffffffffffffffffffffff1690508160015f8581526020019081526020015f206002015f6101000a81548173ffffffffffffffffffffffffffffffffffffffff021916908373ffffffffffffffffffffffffffffffffffffffff1602179055508173ffffffffffffffffffffffffffffffffffffffff168173ffffffffffffffffffffffffffffffffffffffff16847f16b85f49bf01212961345d3016c9a531894accf62eb7680f2045d79185cc0ec060405160405180910390a4505050565b5f5481565b5f60405180606001604052805f5481526020018381526020013373ffffffffffffffffffffffffffffffffffffffff1681525090508060015f5f5481526020019081526020015f205f820151815f015560208201518160010190816102dc919061092e565b506040820151816002015f6101000a81548173ffffffffffffffffffffffffffffffffffffffff021916908373ffffffffffffffffffffffffffffffffffffffff160217905550905050806040015173ffffffffffffffffffffffffffffffffffffffff16815f01517f6e25be3619376e564cfe010b907906379faef975c78ba0112d80e039a612a04f83602001516040516103789190610a43565b60405180910390a35f5f81548092919061039190610a90565b91905055505050565b5f604051905090565b5f5ffd5b5f5ffd5b5f819050919050565b6103bd816103ab565b81146103c7575f5ffd5b50565b5f813590506103d8816103b4565b92915050565b5f73ffffffffffffffffffffffffffffffffffffffff82169050919050565b5f610407826103de565b9050919050565b610417816103fd565b8114610421575f5ffd5b50565b5f813590506104328161040e565b92915050565b5f5f6040838503121561044e5761044d6103a3565b5b5f61045b858286016103ca565b925050602061046c85828601610424565b9150509250929050565b61047f816103ab565b82525050565b5f6020820190506104985f830184610476565b92915050565b5f5ffd5b5f5ffd5b5f601f19601f8301169050919050565b7f4e487b71000000000000000000000000000000000000000000000000000000005f52604160045260245ffd5b6104ec826104a6565b810181811067ffffffffffffffff8211171561050b5761050a6104b6565b5b80604052505050565b5f61051d61039a565b905061052982826104e3565b919050565b5f67ffffffffffffffff821115610548576105476104b6565b5b610551826104a6565b9050602081019050919050565b828183375f83830152505050565b5f61057e6105798461052e565b610514565b90508281526020810184848401111561059a576105996104a2565b5b6105a584828561055e565b509392505050565b5f82601f8301126105c1576105c061049e565b5b81356105d184826020860161056c565b91505092915050565b5f602082840312156105ef576105ee6103a3565b5b5f82013567ffffffffffffffff81111561060c5761060b6103a7565b5b610618848285016105ad565b91505092915050565b5f82825260208201905092915050565b7f496e76616c69642049442e0000000000000000000000000000000000000000005f82015250565b5f610665600b83610621565b915061067082610631565b602082019050919050565b5f6020820190508181035f83015261069281610659565b9050919050565b7f4163636573732044656e696564206f6e6c7920746865206f776e65722063616e5f8201527f20646f207468697320616374696f6e2e00000000000000000000000000000000602082015250565b5f6106f3603083610621565b91506106fe82610699565b604082019050919050565b5f6020820190508181035f830152610720816106e7565b9050919050565b5f81519050919050565b7f4e487b71000000000000000000000000000000000000000000000000000000005f52602260045260245ffd5b5f600282049050600182168061077557607f821691505b60208210810361078857610787610731565b5b50919050565b5f819050815f5260205f209050919050565b5f6020601f8301049050919050565b5f82821b905092915050565b5f600883026107ea7fffffffffffffffffffffffffffffffffffffffffffffffffffffffffffffffff826107af565b6107f486836107af565b95508019841693508086168417925050509392505050565b5f819050919050565b5f61082f61082a610825846103ab565b61080c565b6103ab565b9050919050565b5f819050919050565b61084883610815565b61085c61085482610836565b8484546107bb565b825550505050565b5f5f905090565b610873610864565b61087e81848461083f565b505050565b5b818110156108a1576108965f8261086b565b600181019050610884565b5050565b601f8211156108e6576108b78161078e565b6108c0846107a0565b810160208510156108cf578190505b6108e36108db856107a0565b830182610883565b50505b505050565b5f82821c905092915050565b5f6109065f19846008026108eb565b1980831691505092915050565b5f61091e83836108f7565b9150826002028217905092915050565b61093782610727565b67ffffffffffffffff8111156109505761094f6104b6565b5b61095a825461075e565b6109658282856108a5565b5f60209050601f831160018114610996575f8415610984578287015190505b61098e8582610913565b8655506109f5565b601f1984166109a48661078e565b5f5b828110156109cb578489015182556001820191506020850194506020810190506109a6565b868310156109e857848901516109e4601f8916826108f7565b8355505b6001600288020188555050505b505050505050565b8281835e5f83830152505050565b5f610a1582610727565b610a1f8185610621565b9350610a2f8185602086016109fd565b610a38816104a6565b840191505092915050565b5f6020820190508181035f830152610a5b8184610a0b565b905092915050565b7f4e487b71000000000000000000000000000000000000000000000000000000005f52601160045260245ffd5b5f610a9a826103ab565b91507fffffffffffffffffffffffffffffffffffffffffffffffffffffffffffffffff8203610acc57610acb610a63565b5b60018201905091905056fea264697066735822122004d517fbf47f0d00e2db1f7e7b8223eafe3649442c3640e11e67f24c7dcc975d64736f6c634300081e0033",
					"opcodes": "PUSH1 0x80 PUSH1 0x40 MSTORE PUSH1 0x1 PUSH0 SSTORE CALLVALUE DUP1 ISZERO PUSH1 0x12 JUMPI PUSH0 PUSH0 REVERT JUMPDEST POP PUSH2 0xB0D DUP1 PUSH2 0x20 PUSH0 CODECOPY PUSH0 RETURN INVALID PUSH1 0x80 PUSH1 0x40 MSTORE CALLVALUE DUP1 ISZERO PUSH2 0xF JUMPI PUSH0 PUSH0 REVERT JUMPDEST POP PUSH1 0x4 CALLDATASIZE LT PUSH2 0x3F JUMPI PUSH0 CALLDATALOAD PUSH1 0xE0 SHR DUP1 PUSH4 0x29507F73 EQ PUSH2 0x43 JUMPI DUP1 PUSH4 0x2CBBF664 EQ PUSH2 0x5F JUMPI DUP1 PUSH4 0xADCE7B88 EQ PUSH2 0x7D JUMPI JUMPDEST PUSH0 PUSH0 REVERT JUMPDEST PUSH2 0x5D PUSH1 0x4 DUP1 CALLDATASIZE SUB DUP2 ADD SWAP1 PUSH2 0x58 SWAP2 SWAP1 PUSH2 0x438 JUMP JUMPDEST PUSH2 0x99 JUMP JUMPDEST STOP JUMPDEST PUSH2 0x67 PUSH2 0x272 JUMP JUMPDEST PUSH1 0x40 MLOAD PUSH2 0x74 SWAP2 SWAP1 PUSH2 0x485 JUMP JUMPDEST PUSH1 0x40 MLOAD DUP1 SWAP2 SUB SWAP1 RETURN JUMPDEST PUSH2 0x97 PUSH1 0x4 DUP1 CALLDATASIZE SUB DUP2 ADD SWAP1 PUSH2 0x92 SWAP2 SWAP1 PUSH2 0x5DA JUMP JUMPDEST PUSH2 0x277 JUMP JUMPDEST STOP JUMPDEST PUSH0 DUP3 GT DUP1 ISZERO PUSH2 0xA9 JUMPI POP PUSH0 SLOAD DUP3 GT ISZERO JUMPDEST PUSH2 0xE8 JUMPI PUSH1 0x40 MLOAD PUSH32 0x8C379A000000000000000000000000000000000000000000000000000000000 DUP2 MSTORE PUSH1 0x4 ADD PUSH2 0xDF SWAP1 PUSH2 0x67B JUMP JUMPDEST PUSH1 0x40 MLOAD DUP1 SWAP2 SUB SWAP1 REVERT JUMPDEST PUSH1 0x1 PUSH0 DUP4 DUP2 MSTORE PUSH1 0x20 ADD SWAP1 DUP2 MSTORE PUSH1 0x20 ADD PUSH0 KECCAK256 PUSH1 0x2 ADD PUSH0 SWAP1 SLOAD SWAP1 PUSH2 0x100 EXP SWAP1 DIV PUSH20 0xFFFFFFFFFFFFFFFFFFFFFFFFFFFFFFFFFFFFFFFF AND PUSH20 0xFFFFFFFFFFFFFFFFFFFFFFFFFFFFFFFFFFFFFFFF AND CALLER PUSH20 0xFFFFFFFFFFFFFFFFFFFFFFFFFFFFFFFFFFFFFFFF AND EQ PUSH2 0x189 JUMPI PUSH1 0x40 MLOAD PUSH32 0x8C379A000000000000000000000000000000000000000000000000000000000 DUP2 MSTORE PUSH1 0x4 ADD PUSH2 0x180 SWAP1 PUSH2 0x709 JUMP JUMPDEST PUSH1 0x40 MLOAD DUP1 SWAP2 SUB SWAP1 REVERT JUMPDEST PUSH0 PUSH1 0x1 PUSH0 DUP5 DUP2 MSTORE PUSH1 0x20 ADD SWAP1 DUP2 MSTORE PUSH1 0x20 ADD PUSH0 KECCAK256 PUSH1 0x2 ADD PUSH0 SWAP1 SLOAD SWAP1 PUSH2 0x100 EXP SWAP1 DIV PUSH20 0xFFFFFFFFFFFFFFFFFFFFFFFFFFFFFFFFFFFFFFFF AND SWAP1 POP DUP2 PUSH1 0x1 PUSH0 DUP6 DUP2 MSTORE PUSH1 0x20 ADD SWAP1 DUP2 MSTORE PUSH1 0x20 ADD PUSH0 KECCAK256 PUSH1 0x2 ADD PUSH0 PUSH2 0x100 EXP DUP2 SLOAD DUP2 PUSH20 0xFFFFFFFFFFFFFFFFFFFFFFFFFFFFFFFFFFFFFFFF MUL NOT AND SWAP1 DUP4 PUSH20 0xFFFFFFFFFFFFFFFFFFFFFFFFFFFFFFFFFFFFFFFF AND MUL OR SWAP1 SSTORE POP DUP2 PUSH20 0xFFFFFFFFFFFFFFFFFFFFFFFFFFFFFFFFFFFFFFFF AND DUP2 PUSH20 0xFFFFFFFFFFFFFFFFFFFFFFFFFFFFFFFFFFFFFFFF AND DUP5 PUSH32 0x16B85F49BF01212961345D3016C9A531894ACCF62EB7680F2045D79185CC0EC0 PUSH1 0x40 MLOAD PUSH1 0x40 MLOAD DUP1 SWAP2 SUB SWAP1 LOG4 POP POP POP JUMP JUMPDEST PUSH0 SLOAD DUP2 JUMP JUMPDEST PUSH0 PUSH1 0x40 MLOAD DUP1 PUSH1 0x60 ADD PUSH1 0x40 MSTORE DUP1 PUSH0 SLOAD DUP2 MSTORE PUSH1 0x20 ADD DUP4 DUP2 MSTORE PUSH1 0x20 ADD CALLER PUSH20 0xFFFFFFFFFFFFFFFFFFFFFFFFFFFFFFFFFFFFFFFF AND DUP2 MSTORE POP SWAP1 POP DUP1 PUSH1 0x1 PUSH0 PUSH0 SLOAD DUP2 MSTORE PUSH1 0x20 ADD SWAP1 DUP2 MSTORE PUSH1 0x20 ADD PUSH0 KECCAK256 PUSH0 DUP3 ADD MLOAD DUP2 PUSH0 ADD SSTORE PUSH1 0x20 DUP3 ADD MLOAD DUP2 PUSH1 0x1 ADD SWAP1 DUP2 PUSH2 0x2DC SWAP2 SWAP1 PUSH2 0x92E JUMP JUMPDEST POP PUSH1 0x40 DUP3 ADD MLOAD DUP2 PUSH1 0x2 ADD PUSH0 PUSH2 0x100 EXP DUP2 SLOAD DUP2 PUSH20 0xFFFFFFFFFFFFFFFFFFFFFFFFFFFFFFFFFFFFFFFF MUL NOT AND SWAP1 DUP4 PUSH20 0xFFFFFFFFFFFFFFFFFFFFFFFFFFFFFFFFFFFFFFFF AND MUL OR SWAP1 SSTORE POP SWAP1 POP POP DUP1 PUSH1 0x40 ADD MLOAD PUSH20 0xFFFFFFFFFFFFFFFFFFFFFFFFFFFFFFFFFFFFFFFF AND DUP2 PUSH0 ADD MLOAD PUSH32 0x6E25BE3619376E564CFE010B907906379FAEF975C78BA0112D80E039A612A04F DUP4 PUSH1 0x20 ADD MLOAD PUSH1 0x40 MLOAD PUSH2 0x378 SWAP2 SWAP1 PUSH2 0xA43 JUMP JUMPDEST PUSH1 0x40 MLOAD DUP1 SWAP2 SUB SWAP1 LOG3 PUSH0 PUSH0 DUP2 SLOAD DUP1 SWAP3 SWAP2 SWAP1 PUSH2 0x391 SWAP1 PUSH2 0xA90 JUMP JUMPDEST SWAP2 SWAP1 POP SSTORE POP POP POP JUMP JUMPDEST PUSH0 PUSH1 0x40 MLOAD SWAP1 POP SWAP1 JUMP JUMPDEST PUSH0 PUSH0 REVERT JUMPDEST PUSH0 PUSH0 REVERT JUMPDEST PUSH0 DUP2 SWAP1 POP SWAP2 SWAP1 POP JUMP JUMPDEST PUSH2 0x3BD DUP2 PUSH2 0x3AB JUMP JUMPDEST DUP2 EQ PUSH2 0x3C7 JUMPI PUSH0 PUSH0 REVERT JUMPDEST POP JUMP JUMPDEST PUSH0 DUP2 CALLDATALOAD SWAP1 POP PUSH2 0x3D8 DUP2 PUSH2 0x3B4 JUMP JUMPDEST SWAP3 SWAP2 POP POP JUMP JUMPDEST PUSH0 PUSH20 0xFFFFFFFFFFFFFFFFFFFFFFFFFFFFFFFFFFFFFFFF DUP3 AND SWAP1 POP SWAP2 SWAP1 POP JUMP JUMPDEST PUSH0 PUSH2 0x407 DUP3 PUSH2 0x3DE JUMP JUMPDEST SWAP1 POP SWAP2 SWAP1 POP JUMP JUMPDEST PUSH2 0x417 DUP2 PUSH2 0x3FD JUMP JUMPDEST DUP2 EQ PUSH2 0x421 JUMPI PUSH0 PUSH0 REVERT JUMPDEST POP JUMP JUMPDEST PUSH0 DUP2 CALLDATALOAD SWAP1 POP PUSH2 0x432 DUP2 PUSH2 0x40E JUMP JUMPDEST SWAP3 SWAP2 POP POP JUMP JUMPDEST PUSH0 PUSH0 PUSH1 0x40 DUP4 DUP6 SUB SLT ISZERO PUSH2 0x44E JUMPI PUSH2 0x44D PUSH2 0x3A3 JUMP JUMPDEST JUMPDEST PUSH0 PUSH2 0x45B DUP6 DUP3 DUP7 ADD PUSH2 0x3CA JUMP JUMPDEST SWAP3 POP POP PUSH1 0x20 PUSH2 0x46C DUP6 DUP3 DUP7 ADD PUSH2 0x424 JUMP JUMPDEST SWAP2 POP POP SWAP3 POP SWAP3 SWAP1 POP JUMP JUMPDEST PUSH2 0x47F DUP2 PUSH2 0x3AB JUMP JUMPDEST DUP3 MSTORE POP POP JUMP JUMPDEST PUSH0 PUSH1 0x20 DUP3 ADD SWAP1 POP PUSH2 0x498 PUSH0 DUP4 ADD DUP5 PUSH2 0x476 JUMP JUMPDEST SWAP3 SWAP2 POP POP JUMP JUMPDEST PUSH0 PUSH0 REVERT JUMPDEST PUSH0 PUSH0 REVERT JUMPDEST PUSH0 PUSH1 0x1F NOT PUSH1 0x1F DUP4 ADD AND SWAP1 POP SWAP2 SWAP1 POP JUMP JUMPDEST PUSH32 0x4E487B7100000000000000000000000000000000000000000000000000000000 PUSH0 MSTORE PUSH1 0x41 PUSH1 0x4 MSTORE PUSH1 0x24 PUSH0 REVERT JUMPDEST PUSH2 0x4EC DUP3 PUSH2 0x4A6 JUMP JUMPDEST DUP2 ADD DUP2 DUP2 LT PUSH8 0xFFFFFFFFFFFFFFFF DUP3 GT OR ISZERO PUSH2 0x50B JUMPI PUSH2 0x50A PUSH2 0x4B6 JUMP JUMPDEST JUMPDEST DUP1 PUSH1 0x40 MSTORE POP POP POP JUMP JUMPDEST PUSH0 PUSH2 0x51D PUSH2 0x39A JUMP JUMPDEST SWAP1 POP PUSH2 0x529 DUP3 DUP3 PUSH2 0x4E3 JUMP JUMPDEST SWAP2 SWAP1 POP JUMP JUMPDEST PUSH0 PUSH8 0xFFFFFFFFFFFFFFFF DUP3 GT ISZERO PUSH2 0x548 JUMPI PUSH2 0x547 PUSH2 0x4B6 JUMP JUMPDEST JUMPDEST PUSH2 0x551 DUP3 PUSH2 0x4A6 JUMP JUMPDEST SWAP1 POP PUSH1 0x20 DUP2 ADD SWAP1 POP SWAP2 SWAP1 POP JUMP JUMPDEST DUP3 DUP2 DUP4 CALLDATACOPY PUSH0 DUP4 DUP4 ADD MSTORE POP POP POP JUMP JUMPDEST PUSH0 PUSH2 0x57E PUSH2 0x579 DUP5 PUSH2 0x52E JUMP JUMPDEST PUSH2 0x514 JUMP JUMPDEST SWAP1 POP DUP3 DUP2 MSTORE PUSH1 0x20 DUP2 ADD DUP5 DUP5 DUP5 ADD GT ISZERO PUSH2 0x59A JUMPI PUSH2 0x599 PUSH2 0x4A2 JUMP JUMPDEST JUMPDEST PUSH2 0x5A5 DUP5 DUP3 DUP6 PUSH2 0x55E JUMP JUMPDEST POP SWAP4 SWAP3 POP POP POP JUMP JUMPDEST PUSH0 DUP3 PUSH1 0x1F DUP4 ADD SLT PUSH2 0x5C1 JUMPI PUSH2 0x5C0 PUSH2 0x49E JUMP JUMPDEST JUMPDEST DUP2 CALLDATALOAD PUSH2 0x5D1 DUP5 DUP3 PUSH1 0x20 DUP7 ADD PUSH2 0x56C JUMP JUMPDEST SWAP2 POP POP SWAP3 SWAP2 POP POP JUMP JUMPDEST PUSH0 PUSH1 0x20 DUP3 DUP5 SUB SLT ISZERO PUSH2 0x5EF JUMPI PUSH2 0x5EE PUSH2 0x3A3 JUMP JUMPDEST JUMPDEST PUSH0 DUP3 ADD CALLDATALOAD PUSH8 0xFFFFFFFFFFFFFFFF DUP2 GT ISZERO PUSH2 0x60C JUMPI PUSH2 0x60B PUSH2 0x3A7 JUMP JUMPDEST JUMPDEST PUSH2 0x618 DUP5 DUP3 DUP6 ADD PUSH2 0x5AD JUMP JUMPDEST SWAP2 POP POP SWAP3 SWAP2 POP POP JUMP JUMPDEST PUSH0 DUP3 DUP3 MSTORE PUSH1 0x20 DUP3 ADD SWAP1 POP SWAP3 SWAP2 POP POP JUMP JUMPDEST PUSH32 0x496E76616C69642049442E000000000000000000000000000000000000000000 PUSH0 DUP3 ADD MSTORE POP JUMP JUMPDEST PUSH0 PUSH2 0x665 PUSH1 0xB DUP4 PUSH2 0x621 JUMP JUMPDEST SWAP2 POP PUSH2 0x670 DUP3 PUSH2 0x631 JUMP JUMPDEST PUSH1 0x20 DUP3 ADD SWAP1 POP SWAP2 SWAP1 POP JUMP JUMPDEST PUSH0 PUSH1 0x20 DUP3 ADD SWAP1 POP DUP2 DUP2 SUB PUSH0 DUP4 ADD MSTORE PUSH2 0x692 DUP2 PUSH2 0x659 JUMP JUMPDEST SWAP1 POP SWAP2 SWAP1 POP JUMP JUMPDEST PUSH32 0x4163636573732044656E696564206F6E6C7920746865206F776E65722063616E PUSH0 DUP3 ADD MSTORE PUSH32 0x20646F207468697320616374696F6E2E00000000000000000000000000000000 PUSH1 0x20 DUP3 ADD MSTORE POP JUMP JUMPDEST PUSH0 PUSH2 0x6F3 PUSH1 0x30 DUP4 PUSH2 0x621 JUMP JUMPDEST SWAP2 POP PUSH2 0x6FE DUP3 PUSH2 0x699 JUMP JUMPDEST PUSH1 0x40 DUP3 ADD SWAP1 POP SWAP2 SWAP1 POP JUMP JUMPDEST PUSH0 PUSH1 0x20 DUP3 ADD SWAP1 POP DUP2 DUP2 SUB PUSH0 DUP4 ADD MSTORE PUSH2 0x720 DUP2 PUSH2 0x6E7 JUMP JUMPDEST SWAP1 POP SWAP2 SWAP1 POP JUMP JUMPDEST PUSH0 DUP2 MLOAD SWAP1 POP SWAP2 SWAP1 POP JUMP JUMPDEST PUSH32 0x4E487B7100000000000000000000000000000000000000000000000000000000 PUSH0 MSTORE PUSH1 0x22 PUSH1 0x4 MSTORE PUSH1 0x24 PUSH0 REVERT JUMPDEST PUSH0 PUSH1 0x2 DUP3 DIV SWAP1 POP PUSH1 0x1 DUP3 AND DUP1 PUSH2 0x775 JUMPI PUSH1 0x7F DUP3 AND SWAP2 POP JUMPDEST PUSH1 0x20 DUP3 LT DUP2 SUB PUSH2 0x788 JUMPI PUSH2 0x787 PUSH2 0x731 JUMP JUMPDEST JUMPDEST POP SWAP2 SWAP1 POP JUMP JUMPDEST PUSH0 DUP2 SWAP1 POP DUP2 PUSH0 MSTORE PUSH1 0x20 PUSH0 KECCAK256 SWAP1 POP SWAP2 SWAP1 POP JUMP JUMPDEST PUSH0 PUSH1 0x20 PUSH1 0x1F DUP4 ADD DIV SWAP1 POP SWAP2 SWAP1 POP JUMP JUMPDEST PUSH0 DUP3 DUP3 SHL SWAP1 POP SWAP3 SWAP2 POP POP JUMP JUMPDEST PUSH0 PUSH1 0x8 DUP4 MUL PUSH2 0x7EA PUSH32 0xFFFFFFFFFFFFFFFFFFFFFFFFFFFFFFFFFFFFFFFFFFFFFFFFFFFFFFFFFFFFFFFF DUP3 PUSH2 0x7AF JUMP JUMPDEST PUSH2 0x7F4 DUP7 DUP4 PUSH2 0x7AF JUMP JUMPDEST SWAP6 POP DUP1 NOT DUP5 AND SWAP4 POP DUP1 DUP7 AND DUP5 OR SWAP3 POP POP POP SWAP4 SWAP3 POP POP POP JUMP JUMPDEST PUSH0 DUP2 SWAP1 POP SWAP2 SWAP1 POP JUMP JUMPDEST PUSH0 PUSH2 0x82F PUSH2 0x82A PUSH2 0x825 DUP5 PUSH2 0x3AB JUMP JUMPDEST PUSH2 0x80C JUMP JUMPDEST PUSH2 0x3AB JUMP JUMPDEST SWAP1 POP SWAP2 SWAP1 POP JUMP JUMPDEST PUSH0 DUP2 SWAP1 POP SWAP2 SWAP1 POP JUMP JUMPDEST PUSH2 0x848 DUP4 PUSH2 0x815 JUMP JUMPDEST PUSH2 0x85C PUSH2 0x854 DUP3 PUSH2 0x836 JUMP JUMPDEST DUP5 DUP5 SLOAD PUSH2 0x7BB JUMP JUMPDEST DUP3 SSTORE POP POP POP POP JUMP JUMPDEST PUSH0 PUSH0 SWAP1 POP SWAP1 JUMP JUMPDEST PUSH2 0x873 PUSH2 0x864 JUMP JUMPDEST PUSH2 0x87E DUP2 DUP5 DUP5 PUSH2 0x83F JUMP JUMPDEST POP POP POP JUMP JUMPDEST JUMPDEST DUP2 DUP2 LT ISZERO PUSH2 0x8A1 JUMPI PUSH2 0x896 PUSH0 DUP3 PUSH2 0x86B JUMP JUMPDEST PUSH1 0x1 DUP2 ADD SWAP1 POP PUSH2 0x884 JUMP JUMPDEST POP POP JUMP JUMPDEST PUSH1 0x1F DUP3 GT ISZERO PUSH2 0x8E6 JUMPI PUSH2 0x8B7 DUP2 PUSH2 0x78E JUMP JUMPDEST PUSH2 0x8C0 DUP5 PUSH2 0x7A0 JUMP JUMPDEST DUP2 ADD PUSH1 0x20 DUP6 LT ISZERO PUSH2 0x8CF JUMPI DUP2 SWAP1 POP JUMPDEST PUSH2 0x8E3 PUSH2 0x8DB DUP6 PUSH2 0x7A0 JUMP JUMPDEST DUP4 ADD DUP3 PUSH2 0x883 JUMP JUMPDEST POP POP JUMPDEST POP POP POP JUMP JUMPDEST PUSH0 DUP3 DUP3 SHR SWAP1 POP SWAP3 SWAP2 POP POP JUMP JUMPDEST PUSH0 PUSH2 0x906 PUSH0 NOT DUP5 PUSH1 0x8 MUL PUSH2 0x8EB JUMP JUMPDEST NOT DUP1 DUP4 AND SWAP2 POP POP SWAP3 SWAP2 POP POP JUMP JUMPDEST PUSH0 PUSH2 0x91E DUP4 DUP4 PUSH2 0x8F7 JUMP JUMPDEST SWAP2 POP DUP3 PUSH1 0x2 MUL DUP3 OR SWAP1 POP SWAP3 SWAP2 POP POP JUMP JUMPDEST PUSH2 0x937 DUP3 PUSH2 0x727 JUMP JUMPDEST PUSH8 0xFFFFFFFFFFFFFFFF DUP2 GT ISZERO PUSH2 0x950 JUMPI PUSH2 0x94F PUSH2 0x4B6 JUMP JUMPDEST JUMPDEST PUSH2 0x95A DUP3 SLOAD PUSH2 0x75E JUMP JUMPDEST PUSH2 0x965 DUP3 DUP3 DUP6 PUSH2 0x8A5 JUMP JUMPDEST PUSH0 PUSH1 0x20 SWAP1 POP PUSH1 0x1F DUP4 GT PUSH1 0x1 DUP2 EQ PUSH2 0x996 JUMPI PUSH0 DUP5 ISZERO PUSH2 0x984 JUMPI DUP3 DUP8 ADD MLOAD SWAP1 POP JUMPDEST PUSH2 0x98E DUP6 DUP3 PUSH2 0x913 JUMP JUMPDEST DUP7 SSTORE POP PUSH2 0x9F5 JUMP JUMPDEST PUSH1 0x1F NOT DUP5 AND PUSH2 0x9A4 DUP7 PUSH2 0x78E JUMP JUMPDEST PUSH0 JUMPDEST DUP3 DUP2 LT ISZERO PUSH2 0x9CB JUMPI DUP5 DUP10 ADD MLOAD DUP3 SSTORE PUSH1 0x1 DUP3 ADD SWAP2 POP PUSH1 0x20 DUP6 ADD SWAP5 POP PUSH1 0x20 DUP2 ADD SWAP1 POP PUSH2 0x9A6 JUMP JUMPDEST DUP7 DUP4 LT ISZERO PUSH2 0x9E8 JUMPI DUP5 DUP10 ADD MLOAD PUSH2 0x9E4 PUSH1 0x1F DUP10 AND DUP3 PUSH2 0x8F7 JUMP JUMPDEST DUP4 SSTORE POP JUMPDEST PUSH1 0x1 PUSH1 0x2 DUP9 MUL ADD DUP9 SSTORE POP POP POP JUMPDEST POP POP POP POP POP POP JUMP JUMPDEST DUP3 DUP2 DUP4 MCOPY PUSH0 DUP4 DUP4 ADD MSTORE POP POP POP JUMP JUMPDEST PUSH0 PUSH2 0xA15 DUP3 PUSH2 0x727 JUMP JUMPDEST PUSH2 0xA1F DUP2 DUP6 PUSH2 0x621 JUMP JUMPDEST SWAP4 POP PUSH2 0xA2F DUP2 DUP6 PUSH1 0x20 DUP7 ADD PUSH2 0x9FD JUMP JUMPDEST PUSH2 0xA38 DUP2 PUSH2 0x4A6 JUMP JUMPDEST DUP5 ADD SWAP2 POP POP SWAP3 SWAP2 POP POP JUMP JUMPDEST PUSH0 PUSH1 0x20 DUP3 ADD SWAP1 POP DUP2 DUP2 SUB PUSH0 DUP4 ADD MSTORE PUSH2 0xA5B DUP2 DUP5 PUSH2 0xA0B JUMP JUMPDEST SWAP1 POP SWAP3 SWAP2 POP POP JUMP JUMPDEST PUSH32 0x4E487B7100000000000000000000000000000000000000000000000000000000 PUSH0 MSTORE PUSH1 0x11 PUSH1 0x4 MSTORE PUSH1 0x24 PUSH0 REVERT JUMPDEST PUSH0 PUSH2 0xA9A DUP3 PUSH2 0x3AB JUMP JUMPDEST SWAP2 POP PUSH32 0xFFFFFFFFFFFFFFFFFFFFFFFFFFFFFFFFFFFFFFFFFFFFFFFFFFFFFFFFFFFFFFFF DUP3 SUB PUSH2 0xACC JUMPI PUSH2 0xACB PUSH2 0xA63 JUMP JUMPDEST JUMPDEST PUSH1 0x1 DUP3 ADD SWAP1 POP SWAP2 SWAP1 POP JUMP INVALID LOG2 PUSH5 0x6970667358 0x22 SLT KECCAK256 DIV 0xD5 OR EXTSTATICCALL DELEGATECALL PUSH32 0xD00E2DB1F7E7B8223EAFE3649442C3640E11E67F24C7DCC975D64736F6C6343 STOP ADDMOD 0x1E STOP CALLER "
				},
				"gasEstimates": {
					"creation": {
						"codeDepositCost": "565800",
						"executionCost": "22703",
						"totalCost": "588503"
					},
					"external": {
						"currid()": "2424",
						"registerItem(string)": "infinite",
						"transferOwnership(uint256,address)": "33503"
					}
				},
				"methodIdentifiers": {
					"currid()": "2cbbf664",
					"registerItem(string)": "adce7b88",
					"transferOwnership(uint256,address)": "29507f73"
				}
			},
			"storageLayout": {
				"storage": [
					{
						"astId": 11,
						"contract": "Verifiable On-Chain Provenance Tracker/Smart Contract/Tracker.sol:tracker",
						"label": "currid",
						"offset": 0,
						"slot": "0",
						"type": "t_uint256"
					},
					{
						"astId": 16,
						"contract": "Verifiable On-Chain Provenance Tracker/Smart Contract/Tracker.sol:tracker",
						"label": "items",
						"offset": 0,
						"slot": "1",
						"type": "t_mapping(t_uint256,t_struct(Item)8_storage)"
					}
				],
				"types": {
					"t_address": {
						"encoding": "inplace",
						"label": "address",
						"numberOfBytes": "20"
					},
					"t_mapping(t_uint256,t_struct(Item)8_storage)": {
						"encoding": "mapping",
						"key": "t_uint256",
						"label": "mapping(uint256 => struct tracker.Item)",
						"numberOfBytes": "32",
						"value": "t_struct(Item)8_storage"
					},
					"t_string_storage": {
						"encoding": "bytes",
						"label": "string",
						"numberOfBytes": "32"
					},
					"t_struct(Item)8_storage": {
						"encoding": "inplace",
						"label": "struct tracker.Item",
						"members": [
							{
								"astId": 3,
								"contract": "Verifiable On-Chain Provenance Tracker/Smart Contract/Tracker.sol:tracker",
								"label": "id",
								"offset": 0,
								"slot": "0",
								"type": "t_uint256"
							},
							{
								"astId": 5,
								"contract": "Verifiable On-Chain Provenance Tracker/Smart Contract/Tracker.sol:tracker",
								"label": "name",
								"offset": 0,
								"slot": "1",
								"type": "t_string_storage"
							},
							{
								"astId": 7,
								"contract": "Verifiable On-Chain Provenance Tracker/Smart Contract/Tracker.sol:tracker",
								"label": "owner",
								"offset": 0,
								"slot": "2",
								"type": "t_address"
							}
						],
						"numberOfBytes": "96"
					},
					"t_uint256": {
						"encoding": "inplace",
						"label": "uint256",
						"numberOfBytes": "32"
					}
				}
			},
			"userdoc": {
				"kind": "user",
				"methods": {},
				"version": 1
			}
		}
	}
}